{
  "_format": "hh-sol-artifact-1",
  "contractName": "Domains",
  "sourceName": "contracts/Domains.sol",
  "abi": [
    {
      "inputs": [
        {
          "internalType": "string",
          "name": "_tld",
          "type": "string"
        }
      ],
      "stateMutability": "payable",
      "type": "constructor"
    },
    {
      "anonymous": false,
      "inputs": [
        {
          "indexed": true,
          "internalType": "address",
          "name": "owner",
          "type": "address"
        },
        {
          "indexed": true,
          "internalType": "address",
          "name": "approved",
          "type": "address"
        },
        {
          "indexed": true,
          "internalType": "uint256",
          "name": "tokenId",
          "type": "uint256"
        }
      ],
      "name": "Approval",
      "type": "event"
    },
    {
      "anonymous": false,
      "inputs": [
        {
          "indexed": true,
          "internalType": "address",
          "name": "owner",
          "type": "address"
        },
        {
          "indexed": true,
          "internalType": "address",
          "name": "operator",
          "type": "address"
        },
        {
          "indexed": false,
          "internalType": "bool",
          "name": "approved",
          "type": "bool"
        }
      ],
      "name": "ApprovalForAll",
      "type": "event"
    },
    {
      "anonymous": false,
      "inputs": [
        {
          "indexed": false,
          "internalType": "uint256",
          "name": "domainId",
          "type": "uint256"
        },
        {
          "indexed": false,
          "internalType": "string",
          "name": "name",
          "type": "string"
        }
      ],
      "name": "NewDomain",
      "type": "event"
    },
    {
      "anonymous": false,
      "inputs": [
        {
          "indexed": true,
          "internalType": "address",
          "name": "from",
          "type": "address"
        },
        {
          "indexed": true,
          "internalType": "address",
          "name": "to",
          "type": "address"
        },
        {
          "indexed": true,
          "internalType": "uint256",
          "name": "tokenId",
          "type": "uint256"
        }
      ],
      "name": "Transfer",
      "type": "event"
    },
    {
      "inputs": [
        {
          "internalType": "address",
          "name": "to",
          "type": "address"
        },
        {
          "internalType": "uint256",
          "name": "tokenId",
          "type": "uint256"
        }
      ],
      "name": "approve",
      "outputs": [],
      "stateMutability": "nonpayable",
      "type": "function"
    },
    {
      "inputs": [
        {
          "internalType": "address",
          "name": "owner",
          "type": "address"
        }
      ],
      "name": "balanceOf",
      "outputs": [
        {
          "internalType": "uint256",
          "name": "",
          "type": "uint256"
        }
      ],
      "stateMutability": "view",
      "type": "function"
    },
    {
      "inputs": [
        {
          "internalType": "string",
          "name": "",
          "type": "string"
        }
      ],
      "name": "domains",
      "outputs": [
        {
          "internalType": "address",
          "name": "",
          "type": "address"
        }
      ],
      "stateMutability": "view",
      "type": "function"
    },
    {
      "inputs": [
        {
          "internalType": "string",
          "name": "name",
          "type": "string"
        }
      ],
      "name": "getAddress",
      "outputs": [
        {
          "internalType": "address",
          "name": "",
          "type": "address"
        }
      ],
      "stateMutability": "view",
      "type": "function"
    },
    {
      "inputs": [
        {
          "internalType": "uint256",
          "name": "tokenId",
          "type": "uint256"
        }
      ],
      "name": "getApproved",
      "outputs": [
        {
          "internalType": "address",
          "name": "",
          "type": "address"
        }
      ],
      "stateMutability": "view",
      "type": "function"
    },
    {
      "inputs": [
        {
          "internalType": "string",
          "name": "name",
          "type": "string"
        }
      ],
      "name": "getRecord",
      "outputs": [
        {
          "components": [
            {
              "internalType": "string",
              "name": "name",
              "type": "string"
            },
            {
              "internalType": "string",
              "name": "url",
              "type": "string"
            },
            {
              "internalType": "string",
              "name": "picture",
              "type": "string"
            },
            {
              "internalType": "string",
              "name": "description",
              "type": "string"
            },
            {
              "internalType": "string[]",
              "name": "accounts",
              "type": "string[]"
            },
            {
              "internalType": "string[]",
              "name": "addresses",
              "type": "string[]"
            }
          ],
          "internalType": "struct DomainsBase.DomainInfo",
          "name": "",
          "type": "tuple"
        }
      ],
      "stateMutability": "view",
      "type": "function"
    },
    {
      "inputs": [
        {
          "internalType": "address",
          "name": "owner",
          "type": "address"
        },
        {
          "internalType": "address",
          "name": "operator",
          "type": "address"
        }
      ],
      "name": "isApprovedForAll",
      "outputs": [
        {
          "internalType": "bool",
          "name": "",
          "type": "bool"
        }
      ],
      "stateMutability": "view",
      "type": "function"
    },
    {
      "inputs": [],
      "name": "name",
      "outputs": [
        {
          "internalType": "string",
          "name": "",
          "type": "string"
        }
      ],
      "stateMutability": "view",
      "type": "function"
    },
    {
      "inputs": [
        {
          "internalType": "uint256",
          "name": "tokenId",
          "type": "uint256"
        }
      ],
      "name": "ownerOf",
      "outputs": [
        {
          "internalType": "address",
          "name": "",
          "type": "address"
        }
      ],
      "stateMutability": "view",
      "type": "function"
    },
    {
      "inputs": [
        {
          "internalType": "string",
          "name": "name",
          "type": "string"
        }
      ],
      "name": "price",
      "outputs": [
        {
          "internalType": "uint256",
          "name": "",
          "type": "uint256"
        }
      ],
      "stateMutability": "pure",
      "type": "function"
    },
    {
      "inputs": [
        {
          "internalType": "string",
          "name": "",
          "type": "string"
        }
      ],
      "name": "records",
      "outputs": [
        {
          "internalType": "string",
          "name": "name",
          "type": "string"
        },
        {
          "internalType": "string",
          "name": "url",
          "type": "string"
        },
        {
          "internalType": "string",
          "name": "picture",
          "type": "string"
        },
        {
          "internalType": "string",
          "name": "description",
          "type": "string"
        }
      ],
      "stateMutability": "view",
      "type": "function"
    },
    {
      "inputs": [
        {
          "internalType": "string",
          "name": "name",
          "type": "string"
        }
      ],
      "name": "register",
      "outputs": [],
      "stateMutability": "payable",
      "type": "function"
    },
    {
      "inputs": [
        {
          "internalType": "address",
          "name": "from",
          "type": "address"
        },
        {
          "internalType": "address",
          "name": "to",
          "type": "address"
        },
        {
          "internalType": "uint256",
          "name": "tokenId",
          "type": "uint256"
        }
      ],
      "name": "safeTransferFrom",
      "outputs": [],
      "stateMutability": "nonpayable",
      "type": "function"
    },
    {
      "inputs": [
        {
          "internalType": "address",
          "name": "from",
          "type": "address"
        },
        {
          "internalType": "address",
          "name": "to",
          "type": "address"
        },
        {
          "internalType": "uint256",
          "name": "tokenId",
          "type": "uint256"
        },
        {
          "internalType": "bytes",
          "name": "_data",
          "type": "bytes"
        }
      ],
      "name": "safeTransferFrom",
      "outputs": [],
      "stateMutability": "nonpayable",
      "type": "function"
    },
    {
      "inputs": [
        {
          "internalType": "address",
          "name": "operator",
          "type": "address"
        },
        {
          "internalType": "bool",
          "name": "approved",
          "type": "bool"
        }
      ],
      "name": "setApprovalForAll",
      "outputs": [],
      "stateMutability": "nonpayable",
      "type": "function"
    },
    {
      "inputs": [
        {
          "internalType": "string",
          "name": "name",
          "type": "string"
        },
        {
          "internalType": "string",
          "name": "_url",
          "type": "string"
        },
        {
          "internalType": "string",
          "name": "_picture",
          "type": "string"
        },
        {
          "internalType": "string",
          "name": "_description",
          "type": "string"
        },
        {
          "internalType": "string[]",
          "name": "_accounts",
          "type": "string[]"
        },
        {
          "internalType": "string[]",
          "name": "_addresses",
          "type": "string[]"
        }
      ],
      "name": "setRecord",
      "outputs": [],
      "stateMutability": "nonpayable",
      "type": "function"
    },
    {
      "inputs": [
        {
          "internalType": "bytes4",
          "name": "interfaceId",
          "type": "bytes4"
        }
      ],
      "name": "supportsInterface",
      "outputs": [
        {
          "internalType": "bool",
          "name": "",
          "type": "bool"
        }
      ],
      "stateMutability": "view",
      "type": "function"
    },
    {
      "inputs": [],
      "name": "symbol",
      "outputs": [
        {
          "internalType": "string",
          "name": "",
          "type": "string"
        }
      ],
      "stateMutability": "view",
      "type": "function"
    },
    {
      "inputs": [],
      "name": "tld",
      "outputs": [
        {
          "internalType": "string",
          "name": "",
          "type": "string"
        }
      ],
      "stateMutability": "view",
      "type": "function"
    },
    {
      "inputs": [
        {
          "internalType": "uint256",
          "name": "tokenId",
          "type": "uint256"
        }
      ],
      "name": "tokenURI",
      "outputs": [
        {
          "internalType": "string",
          "name": "",
          "type": "string"
        }
      ],
      "stateMutability": "view",
      "type": "function"
    },
    {
      "inputs": [
        {
          "internalType": "address",
          "name": "from",
          "type": "address"
        },
        {
          "internalType": "address",
          "name": "to",
          "type": "address"
        },
        {
          "internalType": "uint256",
          "name": "tokenId",
          "type": "uint256"
        }
      ],
      "name": "transferFrom",
      "outputs": [],
      "stateMutability": "nonpayable",
      "type": "function"
    }
  ],
  "bytecode": "0x6080604052604051806108a0016040528061086b8152602001620053b861086b9139600b908051906020019062000038929190620002b4565b506040518060400160405280600d81526020017f3c2f746578743e3c2f7376673e00000000000000000000000000000000000000815250600c908051906020019062000086929190620002b4565b5060405162005c2338038062005c238339818101604052810190620000ac9190620003d6565b6040518060400160405280601081526020017f444556204e616d652053657276696365000000000000000000000000000000008152506040518060400160405280600381526020017f444e530000000000000000000000000000000000000000000000000000000000815250816003908051906020019062000130929190620002b4565b50806004908051906020019062000149929190620002b4565b505050806000908051906020019062000164929190620002b4565b50620001b16040518060400160405280601881526020017f2573206e616d652073657276696365206465706c6f796564000000000000000081525082620001cf60201b62001b561760201c565b620001c8600a6200027560201b62001bf21760201c565b5062000623565b620002718282604051602401620001e89291906200045c565b6040516020818303038152906040527f4b5c4277000000000000000000000000000000000000000000000000000000007bffffffffffffffffffffffffffffffffffffffffffffffffffffffff19166020820180517bffffffffffffffffffffffffffffffffffffffffffffffffffffffff83818316178352505050506200028b60201b60201c565b5050565b6001816000016000828254019250508190555050565b60008151905060006a636f6e736f6c652e6c6f679050602083016000808483855afa5050505050565b828054620002c29062000548565b90600052602060002090601f016020900481019282620002e6576000855562000332565b82601f106200030157805160ff191683800117855562000332565b8280016001018555821562000332579182015b828111156200033157825182559160200191906001019062000314565b5b50905062000341919062000345565b5090565b5b808211156200036057600081600090555060010162000346565b5090565b60006200037b6200037584620004c0565b62000497565b9050828152602081018484840111156200039457600080fd5b620003a184828562000512565b509392505050565b600082601f830112620003bb57600080fd5b8151620003cd84826020860162000364565b91505092915050565b600060208284031215620003e957600080fd5b600082015167ffffffffffffffff8111156200040457600080fd5b6200041284828501620003a9565b91505092915050565b60006200042882620004f6565b62000434818562000501565b93506200044681856020860162000512565b620004518162000612565b840191505092915050565b600060408201905081810360008301526200047881856200041b565b905081810360208301526200048e81846200041b565b90509392505050565b6000620004a3620004b6565b9050620004b182826200057e565b919050565b6000604051905090565b600067ffffffffffffffff821115620004de57620004dd620005e3565b5b620004e98262000612565b9050602081019050919050565b600081519050919050565b600082825260208201905092915050565b60005b838110156200053257808201518184015260208101905062000515565b8381111562000542576000848401525b50505050565b600060028204905060018216806200056157607f821691505b60208210811415620005785762000577620005b4565b5b50919050565b620005898262000612565b810181811067ffffffffffffffff82111715620005ab57620005aa620005e3565b5b80604052505050565b7f4e487b7100000000000000000000000000000000000000000000000000000000600052602260045260246000fd5b7f4e487b7100000000000000000000000000000000000000000000000000000000600052604160045260246000fd5b6000601f19601f8301169050919050565b614d8580620006336000396000f3fe60806040526004361061012a5760003560e01c80636352211e116100ab578063b88d4fde1161006f578063b88d4fde1461042b578063bf40fac114610454578063c87b56dd14610491578063e985e9c5146104ce578063f2c298be1461050b578063fe2c6198146105275761012a565b80636352211e1461033457806370a0823114610371578063935f15db146103ae57806395d89b41146103d7578063a22cb465146104025761012a565b806323b872dd116100f257806323b872dd1461023a57806326449235146102635780632d551432146102a057806342842e0e146102cb578063541e771d146102f45761012a565b806301ffc9a71461012f57806306fdde031461016c578063081812fc14610197578063095ea7b3146101d457806311dd8845146101fd575b600080fd5b34801561013b57600080fd5b5061015660048036038101906101519190613425565b610564565b6040516101639190613dd1565b60405180910390f35b34801561017857600080fd5b50610181610646565b60405161018e9190613dec565b60405180910390f35b3480156101a357600080fd5b506101be60048036038101906101b9919061361c565b6106d8565b6040516101cb9190613d6a565b60405180910390f35b3480156101e057600080fd5b506101fb60048036038101906101f691906133e9565b61075d565b005b34801561020957600080fd5b50610224600480360381019061021f9190613477565b610875565b6040516102319190614120565b60405180910390f35b34801561024657600080fd5b50610261600480360381019061025c91906132e3565b610caa565b005b34801561026f57600080fd5b5061028a600480360381019061028591906135db565b610d0a565b6040516102979190613d6a565b60405180910390f35b3480156102ac57600080fd5b506102b5610d53565b6040516102c29190613dec565b60405180910390f35b3480156102d757600080fd5b506102f260048036038101906102ed91906132e3565b610de1565b005b34801561030057600080fd5b5061031b600480360381019061031691906135db565b610e01565b60405161032b9493929190613e45565b60405180910390f35b34801561034057600080fd5b5061035b6004803603810190610356919061361c565b611067565b6040516103689190613d6a565b60405180910390f35b34801561037d57600080fd5b506103986004803603810190610393919061327e565b611119565b6040516103a59190614142565b60405180910390f35b3480156103ba57600080fd5b506103d560048036038101906103d091906134bc565b6111d1565b005b3480156103e357600080fd5b506103ec611394565b6040516103f99190613dec565b60405180910390f35b34801561040e57600080fd5b50610429600480360381019061042491906133ad565b611426565b005b34801561043757600080fd5b50610452600480360381019061044d9190613332565b61143c565b005b34801561046057600080fd5b5061047b60048036038101906104769190613477565b61149e565b6040516104889190613d6a565b60405180910390f35b34801561049d57600080fd5b506104b860048036038101906104b3919061361c565b6114e9565b6040516104c59190613dec565b60405180910390f35b3480156104da57600080fd5b506104f560048036038101906104f091906132a7565b61163b565b6040516105029190613dd1565b60405180910390f35b61052560048036038101906105209190613477565b6116cf565b005b34801561053357600080fd5b5061054e60048036038101906105499190613477565b611ab0565b60405161055b9190614142565b60405180910390f35b60007f80ac58cd000000000000000000000000000000000000000000000000000000007bffffffffffffffffffffffffffffffffffffffffffffffffffffffff1916827bffffffffffffffffffffffffffffffffffffffffffffffffffffffff1916148061062f57507f5b5e139f000000000000000000000000000000000000000000000000000000007bffffffffffffffffffffffffffffffffffffffffffffffffffffffff1916827bffffffffffffffffffffffffffffffffffffffffffffffffffffffff1916145b8061063f575061063e82611c08565b5b9050919050565b6060600380546106559061447d565b80601f01602080910402602001604051908101604052809291908181526020018280546106819061447d565b80156106ce5780601f106106a3576101008083540402835291602001916106ce565b820191906000526020600020905b8154815290600101906020018083116106b157829003601f168201915b5050505050905090565b60006106e382611c72565b610722576040517f08c379a000000000000000000000000000000000000000000000000000000000815260040161071990614080565b60405180910390fd5b6007600083815260200190815260200160002060009054906101000a900473ffffffffffffffffffffffffffffffffffffffff169050919050565b600061076882611067565b90508073ffffffffffffffffffffffffffffffffffffffff168373ffffffffffffffffffffffffffffffffffffffff1614156107d9576040517f08c379a00000000000000000000000000000000000000000000000000000000081526004016107d0906140e0565b60405180910390fd5b8073ffffffffffffffffffffffffffffffffffffffff166107f8611cde565b73ffffffffffffffffffffffffffffffffffffffff161480610827575061082681610821611cde565b61163b565b5b610866576040517f08c379a000000000000000000000000000000000000000000000000000000000815260040161085d90613fc0565b60405180910390fd5b6108708383611ce6565b505050565b61087d612eae565b6002838360405161088f929190613c4c565b90815260200160405180910390206040518060c00160405290816000820180546108b89061447d565b80601f01602080910402602001604051908101604052809291908181526020018280546108e49061447d565b80156109315780601f1061090657610100808354040283529160200191610931565b820191906000526020600020905b81548152906001019060200180831161091457829003601f168201915b5050505050815260200160018201805461094a9061447d565b80601f01602080910402602001604051908101604052809291908181526020018280546109769061447d565b80156109c35780601f10610998576101008083540402835291602001916109c3565b820191906000526020600020905b8154815290600101906020018083116109a657829003601f168201915b505050505081526020016002820180546109dc9061447d565b80601f0160208091040260200160405190810160405280929190818152602001828054610a089061447d565b8015610a555780601f10610a2a57610100808354040283529160200191610a55565b820191906000526020600020905b815481529060010190602001808311610a3857829003601f168201915b50505050508152602001600382018054610a6e9061447d565b80601f0160208091040260200160405190810160405280929190818152602001828054610a9a9061447d565b8015610ae75780601f10610abc57610100808354040283529160200191610ae7565b820191906000526020600020905b815481529060010190602001808311610aca57829003601f168201915b5050505050815260200160048201805480602002602001604051908101604052809291908181526020016000905b82821015610bc1578382906000526020600020018054610b349061447d565b80601f0160208091040260200160405190810160405280929190818152602001828054610b609061447d565b8015610bad5780601f10610b8257610100808354040283529160200191610bad565b820191906000526020600020905b815481529060010190602001808311610b9057829003601f168201915b505050505081526020019060010190610b15565b50505050815260200160058201805480602002602001604051908101604052809291908181526020016000905b82821015610c9a578382906000526020600020018054610c0d9061447d565b80601f0160208091040260200160405190810160405280929190818152602001828054610c399061447d565b8015610c865780601f10610c5b57610100808354040283529160200191610c86565b820191906000526020600020905b815481529060010190602001808311610c6957829003601f168201915b505050505081526020019060010190610bee565b5050505081525050905092915050565b610cbb610cb5611cde565b82611d9f565b610cfa576040517f08c379a0000000000000000000000000000000000000000000000000000000008152600401610cf190614100565b60405180910390fd5b610d05838383611e7d565b505050565b6001818051602081018201805184825260208301602085012081835280955050505050506000915054906101000a900473ffffffffffffffffffffffffffffffffffffffff1681565b60008054610d609061447d565b80601f0160208091040260200160405190810160405280929190818152602001828054610d8c9061447d565b8015610dd95780601f10610dae57610100808354040283529160200191610dd9565b820191906000526020600020905b815481529060010190602001808311610dbc57829003601f168201915b505050505081565b610dfc8383836040518060200160405280600081525061143c565b505050565b600281805160208101820180518482526020830160208501208183528095505050505050600091509050806000018054610e3a9061447d565b80601f0160208091040260200160405190810160405280929190818152602001828054610e669061447d565b8015610eb35780601f10610e8857610100808354040283529160200191610eb3565b820191906000526020600020905b815481529060010190602001808311610e9657829003601f168201915b505050505090806001018054610ec89061447d565b80601f0160208091040260200160405190810160405280929190818152602001828054610ef49061447d565b8015610f415780601f10610f1657610100808354040283529160200191610f41565b820191906000526020600020905b815481529060010190602001808311610f2457829003601f168201915b505050505090806002018054610f569061447d565b80601f0160208091040260200160405190810160405280929190818152602001828054610f829061447d565b8015610fcf5780601f10610fa457610100808354040283529160200191610fcf565b820191906000526020600020905b815481529060010190602001808311610fb257829003601f168201915b505050505090806003018054610fe49061447d565b80601f01602080910402602001604051908101604052809291908181526020018280546110109061447d565b801561105d5780601f106110325761010080835404028352916020019161105d565b820191906000526020600020905b81548152906001019060200180831161104057829003601f168201915b5050505050905084565b6000806005600084815260200190815260200160002060009054906101000a900473ffffffffffffffffffffffffffffffffffffffff169050600073ffffffffffffffffffffffffffffffffffffffff168173ffffffffffffffffffffffffffffffffffffffff161415611110576040517f08c379a000000000000000000000000000000000000000000000000000000000815260040161110790614000565b60405180910390fd5b80915050919050565b60008073ffffffffffffffffffffffffffffffffffffffff168273ffffffffffffffffffffffffffffffffffffffff16141561118a576040517f08c379a000000000000000000000000000000000000000000000000000000000815260040161118190613fe0565b60405180910390fd5b600660008373ffffffffffffffffffffffffffffffffffffffff1673ffffffffffffffffffffffffffffffffffffffff168152602001908152602001600020549050919050565b3373ffffffffffffffffffffffffffffffffffffffff16600188886040516111fa929190613c4c565b908152602001604051809103902060009054906101000a900473ffffffffffffffffffffffffffffffffffffffff1673ffffffffffffffffffffffffffffffffffffffff161461124957600080fd5b6040518060c0016040528088888080601f016020809104026020016040519081016040528093929190818152602001838380828437600081840152601f19601f82011690508083019250505050505050815260200186815260200185815260200184815260200183815260200182815250600288886040516112cc929190613c4c565b908152602001604051809103902060008201518160000190805190602001906112f6929190612ee4565b506020820151816001019080519060200190611313929190612ee4565b506040820151816002019080519060200190611330929190612ee4565b50606082015181600301908051906020019061134d929190612ee4565b50608082015181600401908051906020019061136a929190612f6a565b5060a0820151816005019080519060200190611387929190612f6a565b5090505050505050505050565b6060600480546113a39061447d565b80601f01602080910402602001604051908101604052809291908181526020018280546113cf9061447d565b801561141c5780601f106113f15761010080835404028352916020019161141c565b820191906000526020600020905b8154815290600101906020018083116113ff57829003601f168201915b5050505050905090565b611438611431611cde565b83836120e4565b5050565b61144d611447611cde565b83611d9f565b61148c576040517f08c379a000000000000000000000000000000000000000000000000000000000815260040161148390614100565b60405180910390fd5b61149884848484612251565b50505050565b6000600183836040516114b2929190613c4c565b908152602001604051809103902060009054906101000a900473ffffffffffffffffffffffffffffffffffffffff16905092915050565b60606114f482611c72565b611533576040517f08c379a000000000000000000000000000000000000000000000000000000000815260040161152a90614060565b60405180910390fd5b60006009600084815260200190815260200160002080546115539061447d565b80601f016020809104026020016040519081016040528092919081815260200182805461157f9061447d565b80156115cc5780601f106115a1576101008083540402835291602001916115cc565b820191906000526020600020905b8154815290600101906020018083116115af57829003601f168201915b5050505050905060006115dd6122ad565b90506000815114156115f3578192505050611636565b600082511115611628578082604051602001611610929190613c96565b60405160208183030381529060405292505050611636565b611631846122c4565b925050505b919050565b6000600860008473ffffffffffffffffffffffffffffffffffffffff1673ffffffffffffffffffffffffffffffffffffffff16815260200190815260200160002060008373ffffffffffffffffffffffffffffffffffffffff1673ffffffffffffffffffffffffffffffffffffffff16815260200190815260200160002060009054906101000a900460ff16905092915050565b600073ffffffffffffffffffffffffffffffffffffffff16600183836040516116f9929190613c4c565b908152602001604051809103902060009054906101000a900473ffffffffffffffffffffffffffffffffffffffff1673ffffffffffffffffffffffffffffffffffffffff161461174857600080fd5b60006117548383611ab0565b905080341015611799576040517f08c379a0000000000000000000000000000000000000000000000000000000008152600401611790906140c0565b60405180910390fd5b6000838360006040516020016117b193929190613c65565b60405160208183030381529060405290506000600b82600c6040516020016117db93929190613cba565b604051602081830303815290604052905060006117f8600a61236b565b9050600061184987878080601f016020809104026020016040519081016040528093929190818152602001838380828437600081840152601f19601f82011690508083019250505050505050612379565b9050600061185682612554565b905061194a604051806060016040528060318152602001614ca66031913989898080601f016020809104026020016040519081016040528093929190818152602001838380828437600081840152601f19601f82011690508083019250505050505050600080546118c69061447d565b80601f01602080910402602001604051908101604052809291908181526020018280546118f29061447d565b801561193f5780601f106119145761010080835404028352916020019161193f565b820191906000526020600020905b81548152906001019060200180831161192257829003601f168201915b505050505086612701565b600061198086611959876127a3565b8460405160200161196c93929190613ceb565b6040516020818303038152906040526127a3565b90506000816040516020016119959190613d48565b60405160208183030381529060405290506119c7604051806060016040528060398152602001614c6d60399139612961565b611a066040518060400160405280600e81526020017f46696e616c20746f6b656e55524900000000000000000000000000000000000081525082611b56565b611a27604051806060016040528060398152602001614cd760399139612961565b611a3133866129fa565b611a3b8582612a18565b3360018b8b604051611a4e929190613c4c565b908152602001604051809103902060006101000a81548173ffffffffffffffffffffffffffffffffffffffff021916908373ffffffffffffffffffffffffffffffffffffffff160217905550611aa4600a611bf2565b50505050505050505050565b600080611b0084848080601f016020809104026020016040519081016040528093929190818152602001838380828437600081840152601f19601f82011690508083019250505050505050612379565b905060008111611b0f57600080fd5b6003811415611b29576706f05b59d3b20000915050611b50565b6004811415611b4357670429d069189e0000915050611b50565b67016345785d8a00009150505b92915050565b611bee8282604051602401611b6c929190613e0e565b6040516020818303038152906040527f4b5c4277000000000000000000000000000000000000000000000000000000007bffffffffffffffffffffffffffffffffffffffffffffffffffffffff19166020820180517bffffffffffffffffffffffffffffffffffffffffffffffffffffffff8381831617835250505050612a8c565b5050565b6001816000016000828254019250508190555050565b60007f01ffc9a7000000000000000000000000000000000000000000000000000000007bffffffffffffffffffffffffffffffffffffffffffffffffffffffff1916827bffffffffffffffffffffffffffffffffffffffffffffffffffffffff1916149050919050565b60008073ffffffffffffffffffffffffffffffffffffffff166005600084815260200190815260200160002060009054906101000a900473ffffffffffffffffffffffffffffffffffffffff1673ffffffffffffffffffffffffffffffffffffffff1614159050919050565b600033905090565b816007600083815260200190815260200160002060006101000a81548173ffffffffffffffffffffffffffffffffffffffff021916908373ffffffffffffffffffffffffffffffffffffffff160217905550808273ffffffffffffffffffffffffffffffffffffffff16611d5983611067565b73ffffffffffffffffffffffffffffffffffffffff167f8c5be1e5ebec7d5bd14f71427d1e84f3dd0314c0f7b2291e5b200ac8c7c3b92560405160405180910390a45050565b6000611daa82611c72565b611de9576040517f08c379a0000000000000000000000000000000000000000000000000000000008152600401611de090613fa0565b60405180910390fd5b6000611df483611067565b90508073ffffffffffffffffffffffffffffffffffffffff168473ffffffffffffffffffffffffffffffffffffffff161480611e365750611e35818561163b565b5b80611e7457508373ffffffffffffffffffffffffffffffffffffffff16611e5c846106d8565b73ffffffffffffffffffffffffffffffffffffffff16145b91505092915050565b8273ffffffffffffffffffffffffffffffffffffffff16611e9d82611067565b73ffffffffffffffffffffffffffffffffffffffff1614611ef3576040517f08c379a0000000000000000000000000000000000000000000000000000000008152600401611eea90613f20565b60405180910390fd5b600073ffffffffffffffffffffffffffffffffffffffff168273ffffffffffffffffffffffffffffffffffffffff161415611f63576040517f08c379a0000000000000000000000000000000000000000000000000000000008152600401611f5a90613f60565b60405180910390fd5b611f6e838383612ab5565b611f79600082611ce6565b6001600660008573ffffffffffffffffffffffffffffffffffffffff1673ffffffffffffffffffffffffffffffffffffffff1681526020019081526020016000206000828254611fc99190614393565b925050819055506001600660008473ffffffffffffffffffffffffffffffffffffffff1673ffffffffffffffffffffffffffffffffffffffff168152602001908152602001600020600082825461202091906142b2565b92505081905550816005600083815260200190815260200160002060006101000a81548173ffffffffffffffffffffffffffffffffffffffff021916908373ffffffffffffffffffffffffffffffffffffffff160217905550808273ffffffffffffffffffffffffffffffffffffffff168473ffffffffffffffffffffffffffffffffffffffff167fddf252ad1be2c89b69c2b068fc378daa952ba7f163c4a11628f55a4df523b3ef60405160405180910390a46120df838383612aba565b505050565b8173ffffffffffffffffffffffffffffffffffffffff168373ffffffffffffffffffffffffffffffffffffffff161415612153576040517f08c379a000000000000000000000000000000000000000000000000000000000815260040161214a90613f80565b60405180910390fd5b80600860008573ffffffffffffffffffffffffffffffffffffffff1673ffffffffffffffffffffffffffffffffffffffff16815260200190815260200160002060008473ffffffffffffffffffffffffffffffffffffffff1673ffffffffffffffffffffffffffffffffffffffff16815260200190815260200160002060006101000a81548160ff0219169083151502179055508173ffffffffffffffffffffffffffffffffffffffff168373ffffffffffffffffffffffffffffffffffffffff167f17307eab39ab6107e8899845ad3d59bd9653f200f220920489ca2b5937696c31836040516122449190613dd1565b60405180910390a3505050565b61225c848484611e7d565b61226884848484612abf565b6122a7576040517f08c379a000000000000000000000000000000000000000000000000000000000815260040161229e90613f00565b60405180910390fd5b50505050565b606060405180602001604052806000815250905090565b60606122cf82611c72565b61230e576040517f08c379a0000000000000000000000000000000000000000000000000000000008152600401612305906140a0565b60405180910390fd5b60006123186122ad565b905060008151116123385760405180602001604052806000815250612363565b8061234284612554565b604051602001612353929190613c96565b6040516020818303038152906040525b915050919050565b600081600001549050919050565b60008060008084519050600092505b808210156125495760008583815181106123cb577f4e487b7100000000000000000000000000000000000000000000000000000000600052603260045260246000fd5b602001015160f81c60f81b9050608060f81b817effffffffffffffffffffffffffffffffffffffffffffffffffffffffffffff1916101561241a5760018361241391906142b2565b9250612535565b60e060f81b817effffffffffffffffffffffffffffffffffffffffffffffffffffffffffffff1916101561245c5760028361245591906142b2565b9250612534565b60f060f81b817effffffffffffffffffffffffffffffffffffffffffffffffffffffffffffff1916101561249e5760038361249791906142b2565b9250612533565b60f8801b817effffffffffffffffffffffffffffffffffffffffffffffffffffffffffffff191610156124df576004836124d891906142b2565b9250612532565b60fc60f81b817effffffffffffffffffffffffffffffffffffffffffffffffffffffffffffff191610156125215760058361251a91906142b2565b9250612531565b60068361252e91906142b2565b92505b5b5b5b5b508280612541906144e0565b935050612388565b829350505050919050565b6060600082141561259c576040518060400160405280600181526020017f300000000000000000000000000000000000000000000000000000000000000081525090506126fc565b600082905060005b600082146125ce5780806125b7906144e0565b915050600a826125c79190614308565b91506125a4565b60008167ffffffffffffffff811115612610577f4e487b7100000000000000000000000000000000000000000000000000000000600052604160045260246000fd5b6040519080825280601f01601f1916602001820160405280156126425781602001600182028036833780820191505090505b5090505b600085146126f55760018261265b9190614393565b9150600a8561266a9190614529565b603061267691906142b2565b60f81b8183815181106126b2577f4e487b7100000000000000000000000000000000000000000000000000000000600052603260045260246000fd5b60200101907effffffffffffffffffffffffffffffffffffffffffffffffffffffffffffff1916908160001a905350600a856126ee9190614308565b9450612646565b8093505050505b919050565b61279d8484848460405160240161271b9493929190613ea6565b6040516020818303038152906040527f9fd009f5000000000000000000000000000000000000000000000000000000007bffffffffffffffffffffffffffffffffffffffffffffffffffffffff19166020820180517bffffffffffffffffffffffffffffffffffffffffffffffffffffffff8381831617835250505050612a8c565b50505050565b606060008251905060008114156127cc576040518060200160405280600081525091505061295c565b600060036002836127dd91906142b2565b6127e79190614308565b60046127f39190614339565b9050600060208261280491906142b2565b67ffffffffffffffff811115612843577f4e487b7100000000000000000000000000000000000000000000000000000000600052604160045260246000fd5b6040519080825280601f01601f1916602001820160405280156128755781602001600182028036833780820191505090505b5090506000604051806060016040528060408152602001614d10604091399050600181016020830160005b868110156129195760038101905062ffffff818a015116603f8160121c168401518060081b905060ff603f83600c1c1686015116810190508060081b905060ff603f8360061c1686015116810190508060081b905060ff603f831686015116810190508060e01b905080845260048401935050506128a0565b50600386066001811461293357600281146129435761294e565b613d3d60f01b600283035261294e565b603d60f81b60018303525b508484525050819450505050505b919050565b6129f7816040516024016129759190613dec565b6040516020818303038152906040527f41304fac000000000000000000000000000000000000000000000000000000007bffffffffffffffffffffffffffffffffffffffffffffffffffffffff19166020820180517bffffffffffffffffffffffffffffffffffffffffffffffffffffffff8381831617835250505050612a8c565b50565b612a14828260405180602001604052806000815250612c56565b5050565b612a2182611c72565b612a60576040517f08c379a0000000000000000000000000000000000000000000000000000000008152600401612a5790614020565b60405180910390fd5b80600960008481526020019081526020016000209080519060200190612a87929190612ee4565b505050565b60008151905060006a636f6e736f6c652e6c6f679050602083016000808483855afa5050505050565b505050565b505050565b6000612ae08473ffffffffffffffffffffffffffffffffffffffff16612cb1565b15612c49578373ffffffffffffffffffffffffffffffffffffffff1663150b7a02612b09611cde565b8786866040518563ffffffff1660e01b8152600401612b2b9493929190613d85565b602060405180830381600087803b158015612b4557600080fd5b505af1925050508015612b7657506040513d601f19601f82011682018060405250810190612b73919061344e565b60015b612bf9573d8060008114612ba6576040519150601f19603f3d011682016040523d82523d6000602084013e612bab565b606091505b50600081511415612bf1576040517f08c379a0000000000000000000000000000000000000000000000000000000008152600401612be890613f00565b60405180910390fd5b805181602001fd5b63150b7a0260e01b7bffffffffffffffffffffffffffffffffffffffffffffffffffffffff1916817bffffffffffffffffffffffffffffffffffffffffffffffffffffffff191614915050612c4e565b600190505b949350505050565b612c608383612cd4565b612c6d6000848484612abf565b612cac576040517f08c379a0000000000000000000000000000000000000000000000000000000008152600401612ca390613f00565b60405180910390fd5b505050565b6000808273ffffffffffffffffffffffffffffffffffffffff163b119050919050565b600073ffffffffffffffffffffffffffffffffffffffff168273ffffffffffffffffffffffffffffffffffffffff161415612d44576040517f08c379a0000000000000000000000000000000000000000000000000000000008152600401612d3b90614040565b60405180910390fd5b612d4d81611c72565b15612d8d576040517f08c379a0000000000000000000000000000000000000000000000000000000008152600401612d8490613f40565b60405180910390fd5b612d9960008383612ab5565b6001600660008473ffffffffffffffffffffffffffffffffffffffff1673ffffffffffffffffffffffffffffffffffffffff1681526020019081526020016000206000828254612de991906142b2565b92505081905550816005600083815260200190815260200160002060006101000a81548173ffffffffffffffffffffffffffffffffffffffff021916908373ffffffffffffffffffffffffffffffffffffffff160217905550808273ffffffffffffffffffffffffffffffffffffffff16600073ffffffffffffffffffffffffffffffffffffffff167fddf252ad1be2c89b69c2b068fc378daa952ba7f163c4a11628f55a4df523b3ef60405160405180910390a4612eaa60008383612aba565b5050565b6040518060c001604052806060815260200160608152602001606081526020016060815260200160608152602001606081525090565b828054612ef09061447d565b90600052602060002090601f016020900481019282612f125760008555612f59565b82601f10612f2b57805160ff1916838001178555612f59565b82800160010185558215612f59579182015b82811115612f58578251825591602001919060010190612f3d565b5b509050612f669190612fca565b5090565b828054828255906000526020600020908101928215612fb9579160200282015b82811115612fb8578251829080519060200190612fa8929190612ee4565b5091602001919060010190612f8a565b5b509050612fc69190612fe7565b5090565b5b80821115612fe3576000816000905550600101612fcb565b5090565b5b808211156130075760008181612ffe919061300b565b50600101612fe8565b5090565b5080546130179061447d565b6000825580601f106130295750613048565b601f0160209004906000526020600020908101906130479190612fca565b5b50565b600061305e61305984614182565b61415d565b9050808382526020820190508285602086028201111561307d57600080fd5b60005b858110156130c757813567ffffffffffffffff81111561309f57600080fd5b8086016130ac898261323f565b85526020850194506020840193505050600181019050613080565b5050509392505050565b60006130e46130df846141ae565b61415d565b9050828152602081018484840111156130fc57600080fd5b61310784828561443b565b509392505050565b600061312261311d846141df565b61415d565b90508281526020810184848401111561313a57600080fd5b61314584828561443b565b509392505050565b60008135905061315c81614c10565b92915050565b600082601f83011261317357600080fd5b813561318384826020860161304b565b91505092915050565b60008135905061319b81614c27565b92915050565b6000813590506131b081614c3e565b92915050565b6000815190506131c581614c3e565b92915050565b600082601f8301126131dc57600080fd5b81356131ec8482602086016130d1565b91505092915050565b60008083601f84011261320757600080fd5b8235905067ffffffffffffffff81111561322057600080fd5b60208301915083600182028301111561323857600080fd5b9250929050565b600082601f83011261325057600080fd5b813561326084826020860161310f565b91505092915050565b60008135905061327881614c55565b92915050565b60006020828403121561329057600080fd5b600061329e8482850161314d565b91505092915050565b600080604083850312156132ba57600080fd5b60006132c88582860161314d565b92505060206132d98582860161314d565b9150509250929050565b6000806000606084860312156132f857600080fd5b60006133068682870161314d565b93505060206133178682870161314d565b925050604061332886828701613269565b9150509250925092565b6000806000806080858703121561334857600080fd5b60006133568782880161314d565b94505060206133678782880161314d565b935050604061337887828801613269565b925050606085013567ffffffffffffffff81111561339557600080fd5b6133a1878288016131cb565b91505092959194509250565b600080604083850312156133c057600080fd5b60006133ce8582860161314d565b92505060206133df8582860161318c565b9150509250929050565b600080604083850312156133fc57600080fd5b600061340a8582860161314d565b925050602061341b85828601613269565b9150509250929050565b60006020828403121561343757600080fd5b6000613445848285016131a1565b91505092915050565b60006020828403121561346057600080fd5b600061346e848285016131b6565b91505092915050565b6000806020838503121561348a57600080fd5b600083013567ffffffffffffffff8111156134a457600080fd5b6134b0858286016131f5565b92509250509250929050565b600080600080600080600060c0888a0312156134d757600080fd5b600088013567ffffffffffffffff8111156134f157600080fd5b6134fd8a828b016131f5565b9750975050602088013567ffffffffffffffff81111561351c57600080fd5b6135288a828b0161323f565b955050604088013567ffffffffffffffff81111561354557600080fd5b6135518a828b0161323f565b945050606088013567ffffffffffffffff81111561356e57600080fd5b61357a8a828b0161323f565b935050608088013567ffffffffffffffff81111561359757600080fd5b6135a38a828b01613162565b92505060a088013567ffffffffffffffff8111156135c057600080fd5b6135cc8a828b01613162565b91505092959891949750929550565b6000602082840312156135ed57600080fd5b600082013567ffffffffffffffff81111561360757600080fd5b6136138482850161323f565b91505092915050565b60006020828403121561362e57600080fd5b600061363c84828501613269565b91505092915050565b6000613651838361374a565b905092915050565b613662816143c7565b82525050565b600061367382614235565b61367d8185614263565b93508360208202850161368f85614210565b8060005b858110156136cb57848403895281516136ac8582613645565b94506136b783614256565b925060208a01995050600181019050613693565b50829750879550505050505092915050565b6136e6816143d9565b82525050565b60006136f782614240565b6137018185614274565b935061371181856020860161444a565b61371a81614616565b840191505092915050565b600061373183856142a7565b935061373e83858461443b565b82840190509392505050565b60006137558261424b565b61375f8185614285565b935061376f81856020860161444a565b61377881614616565b840191505092915050565b600061378e8261424b565b6137988185614296565b93506137a881856020860161444a565b6137b181614616565b840191505092915050565b60006137c78261424b565b6137d181856142a7565b93506137e181856020860161444a565b80840191505092915050565b600081546137fa8161447d565b61380481866142a7565b9450600182166000811461381f576001811461383057613863565b60ff19831686528186019350613863565b61383985614220565b60005b8381101561385b5781548189015260018201915060208101905061383c565b838801955050505b50505092915050565b6000613879603283614296565b915061388482614627565b604082019050919050565b600061389c602583614296565b91506138a782614676565b604082019050919050565b60006138bf601c83614296565b91506138ca826146c5565b602082019050919050565b60006138e2605c836142a7565b91506138ed826146ee565b605c82019050919050565b6000613905602483614296565b915061391082614763565b604082019050919050565b6000613928601983614296565b9150613933826147b2565b602082019050919050565b600061394b602c83614296565b9150613956826147db565b604082019050919050565b600061396e603883614296565b91506139798261482a565b604082019050919050565b60006139916001836142a7565b915061399c82614879565b600182019050919050565b60006139b4602a83614296565b91506139bf826148a2565b604082019050919050565b60006139d7602983614296565b91506139e2826148f1565b604082019050919050565b60006139fa602e83614296565b9150613a0582614940565b604082019050919050565b6000613a1d6002836142a7565b9150613a288261498f565b600282019050919050565b6000613a40602083614296565b9150613a4b826149b8565b602082019050919050565b6000613a63603183614296565b9150613a6e826149e1565b604082019050919050565b6000613a86602c83614296565b9150613a9182614a30565b604082019050919050565b6000613aa9602f83614296565b9150613ab482614a7f565b604082019050919050565b6000613acc601583614296565b9150613ad782614ace565b602082019050919050565b6000613aef600a836142a7565b9150613afa82614af7565b600a82019050919050565b6000613b12602183614296565b9150613b1d82614b20565b604082019050919050565b6000613b35601d836142a7565b9150613b4082614b6f565b601d82019050919050565b6000613b58600c836142a7565b9150613b6382614b98565b600c82019050919050565b6000613b7b603183614296565b9150613b8682614bc1565b604082019050919050565b600060c0830160008301518482036000860152613bae828261374a565b91505060208301518482036020860152613bc8828261374a565b91505060408301518482036040860152613be2828261374a565b91505060608301518482036060860152613bfc828261374a565b91505060808301518482036080860152613c168282613668565b91505060a083015184820360a0860152613c308282613668565b9150508091505092915050565b613c4681614431565b82525050565b6000613c59828486613725565b91508190509392505050565b6000613c72828587613725565b9150613c7d82613984565b9150613c8982846137ed565b9150819050949350505050565b6000613ca282856137bc565b9150613cae82846137bc565b91508190509392505050565b6000613cc682866137ed565b9150613cd282856137bc565b9150613cde82846137ed565b9150819050949350505050565b6000613cf682613ae2565b9150613d0282866137bc565b9150613d0d826138d5565b9150613d1982856137bc565b9150613d2482613b4b565b9150613d3082846137bc565b9150613d3b82613a10565b9150819050949350505050565b6000613d5382613b28565b9150613d5f82846137bc565b915081905092915050565b6000602082019050613d7f6000830184613659565b92915050565b6000608082019050613d9a6000830187613659565b613da76020830186613659565b613db46040830185613c3d565b8181036060830152613dc681846136ec565b905095945050505050565b6000602082019050613de660008301846136dd565b92915050565b60006020820190508181036000830152613e068184613783565b905092915050565b60006040820190508181036000830152613e288185613783565b90508181036020830152613e3c8184613783565b90509392505050565b60006080820190508181036000830152613e5f8187613783565b90508181036020830152613e738186613783565b90508181036040830152613e878185613783565b90508181036060830152613e9b8184613783565b905095945050505050565b60006080820190508181036000830152613ec08187613783565b90508181036020830152613ed48186613783565b90508181036040830152613ee88185613783565b9050613ef76060830184613c3d565b95945050505050565b60006020820190508181036000830152613f198161386c565b9050919050565b60006020820190508181036000830152613f398161388f565b9050919050565b60006020820190508181036000830152613f59816138b2565b9050919050565b60006020820190508181036000830152613f79816138f8565b9050919050565b60006020820190508181036000830152613f998161391b565b9050919050565b60006020820190508181036000830152613fb98161393e565b9050919050565b60006020820190508181036000830152613fd981613961565b9050919050565b60006020820190508181036000830152613ff9816139a7565b9050919050565b60006020820190508181036000830152614019816139ca565b9050919050565b60006020820190508181036000830152614039816139ed565b9050919050565b6000602082019050818103600083015261405981613a33565b9050919050565b6000602082019050818103600083015261407981613a56565b9050919050565b6000602082019050818103600083015261409981613a79565b9050919050565b600060208201905081810360008301526140b981613a9c565b9050919050565b600060208201905081810360008301526140d981613abf565b9050919050565b600060208201905081810360008301526140f981613b05565b9050919050565b6000602082019050818103600083015261411981613b6e565b9050919050565b6000602082019050818103600083015261413a8184613b91565b905092915050565b60006020820190506141576000830184613c3d565b92915050565b6000614167614178565b905061417382826144af565b919050565b6000604051905090565b600067ffffffffffffffff82111561419d5761419c6145e7565b5b602082029050602081019050919050565b600067ffffffffffffffff8211156141c9576141c86145e7565b5b6141d282614616565b9050602081019050919050565b600067ffffffffffffffff8211156141fa576141f96145e7565b5b61420382614616565b9050602081019050919050565b6000819050602082019050919050565b60008190508160005260206000209050919050565b600081519050919050565b600081519050919050565b600081519050919050565b6000602082019050919050565b600082825260208201905092915050565b600082825260208201905092915050565b600082825260208201905092915050565b600082825260208201905092915050565b600081905092915050565b60006142bd82614431565b91506142c883614431565b9250827fffffffffffffffffffffffffffffffffffffffffffffffffffffffffffffffff038211156142fd576142fc61455a565b5b828201905092915050565b600061431382614431565b915061431e83614431565b92508261432e5761432d614589565b5b828204905092915050565b600061434482614431565b915061434f83614431565b9250817fffffffffffffffffffffffffffffffffffffffffffffffffffffffffffffffff04831182151516156143885761438761455a565b5b828202905092915050565b600061439e82614431565b91506143a983614431565b9250828210156143bc576143bb61455a565b5b828203905092915050565b60006143d282614411565b9050919050565b60008115159050919050565b60007fffffffff0000000000000000000000000000000000000000000000000000000082169050919050565b600073ffffffffffffffffffffffffffffffffffffffff82169050919050565b6000819050919050565b82818337600083830152505050565b60005b8381101561446857808201518184015260208101905061444d565b83811115614477576000848401525b50505050565b6000600282049050600182168061449557607f821691505b602082108114156144a9576144a86145b8565b5b50919050565b6144b882614616565b810181811067ffffffffffffffff821117156144d7576144d66145e7565b5b80604052505050565b60006144eb82614431565b91507fffffffffffffffffffffffffffffffffffffffffffffffffffffffffffffffff82141561451e5761451d61455a565b5b600182019050919050565b600061453482614431565b915061453f83614431565b92508261454f5761454e614589565b5b828206905092915050565b7f4e487b7100000000000000000000000000000000000000000000000000000000600052601160045260246000fd5b7f4e487b7100000000000000000000000000000000000000000000000000000000600052601260045260246000fd5b7f4e487b7100000000000000000000000000000000000000000000000000000000600052602260045260246000fd5b7f4e487b7100000000000000000000000000000000000000000000000000000000600052604160045260246000fd5b6000601f19601f8301169050919050565b7f4552433732313a207472616e7366657220746f206e6f6e20455243373231526560008201527f63656976657220696d706c656d656e7465720000000000000000000000000000602082015250565b7f4552433732313a207472616e736665722066726f6d20696e636f72726563742060008201527f6f776e6572000000000000000000000000000000000000000000000000000000602082015250565b7f4552433732313a20746f6b656e20616c7265616479206d696e74656400000000600082015250565b7f222c20226465736372697074696f6e223a20224120646f6d61696e206f6e207460008201527f6865204e696e6a61206e616d652073657276696365222c2022696d616765223a60208201527f2022646174613a696d6167652f7376672b786d6c3b6261736536342c00000000604082015250565b7f4552433732313a207472616e7366657220746f20746865207a65726f2061646460008201527f7265737300000000000000000000000000000000000000000000000000000000602082015250565b7f4552433732313a20617070726f766520746f2063616c6c657200000000000000600082015250565b7f4552433732313a206f70657261746f7220717565727920666f72206e6f6e657860008201527f697374656e7420746f6b656e0000000000000000000000000000000000000000602082015250565b7f4552433732313a20617070726f76652063616c6c6572206973206e6f74206f7760008201527f6e6572206e6f7220617070726f76656420666f7220616c6c0000000000000000602082015250565b7f2e00000000000000000000000000000000000000000000000000000000000000600082015250565b7f4552433732313a2062616c616e636520717565727920666f7220746865207a6560008201527f726f206164647265737300000000000000000000000000000000000000000000602082015250565b7f4552433732313a206f776e657220717565727920666f72206e6f6e657869737460008201527f656e7420746f6b656e0000000000000000000000000000000000000000000000602082015250565b7f45524337323155524953746f726167653a2055524920736574206f66206e6f6e60008201527f6578697374656e7420746f6b656e000000000000000000000000000000000000602082015250565b7f227d000000000000000000000000000000000000000000000000000000000000600082015250565b7f4552433732313a206d696e7420746f20746865207a65726f2061646472657373600082015250565b7f45524337323155524953746f726167653a2055524920717565727920666f722060008201527f6e6f6e6578697374656e7420746f6b656e000000000000000000000000000000602082015250565b7f4552433732313a20617070726f76656420717565727920666f72206e6f6e657860008201527f697374656e7420746f6b656e0000000000000000000000000000000000000000602082015250565b7f4552433732314d657461646174613a2055524920717565727920666f72206e6f60008201527f6e6578697374656e7420746f6b656e0000000000000000000000000000000000602082015250565b7f4e6f7420656e6f756768204d6174696320706169640000000000000000000000600082015250565b7f7b226e616d65223a202200000000000000000000000000000000000000000000600082015250565b7f4552433732313a20617070726f76616c20746f2063757272656e74206f776e6560008201527f7200000000000000000000000000000000000000000000000000000000000000602082015250565b7f646174613a6170706c69636174696f6e2f6a736f6e3b6261736536342c000000600082015250565b7f222c226c656e677468223a220000000000000000000000000000000000000000600082015250565b7f4552433732313a207472616e736665722063616c6c6572206973206e6f74206f60008201527f776e6572206e6f7220617070726f766564000000000000000000000000000000602082015250565b614c19816143c7565b8114614c2457600080fd5b50565b614c30816143d9565b8114614c3b57600080fd5b50565b614c47816143e5565b8114614c5257600080fd5b50565b614c5e81614431565b8114614c6957600080fd5b5056fe0a2d2d2d2d2d2d2d2d2d2d2d2d2d2d2d2d2d2d2d2d2d2d2d2d2d2d2d2d2d2d2d2d2d2d2d2d2d2d2d2d2d2d2d2d2d2d2d2d2d2d2d2d2d2d2d2d5265676973746572696e672025732e2573206f6e2074686520636f6e7472616374207769746820746f6b656e49442025642d2d2d2d2d2d2d2d2d2d2d2d2d2d2d2d2d2d2d2d2d2d2d2d2d2d2d2d2d2d2d2d2d2d2d2d2d2d2d2d2d2d2d2d2d2d2d2d2d2d2d2d2d2d2d2d0a4142434445464748494a4b4c4d4e4f505152535455565758595a6162636465666768696a6b6c6d6e6f707172737475767778797a303132333435363738392b2fa26469706673582212200139a15d68de61ef3df7332c9c3a428ca55045422e2a599d1420a7d44f35b3bf64736f6c634300080400333c73766720786d6c6e733d22687474703a2f2f7777772e77332e6f72672f323030302f737667222077696474683d2232373022206865696768743d22323730222066696c6c3d226e6f6e65223e3c706174682066696c6c3d2275726c282342292220643d224d302030683237307632373048307a222f3e3c646566733e3c66696c7465722069643d22412220636f6c6f722d696e746572706f6c6174696f6e2d66696c746572733d2273524742222066696c746572556e6974733d227573657253706163654f6e55736522206865696768743d22323730222077696474683d22323730223e3c666544726f70536861646f772064783d2230222064793d22312220737464446576696174696f6e3d22322220666c6f6f642d6f7061636974793d222e323235222077696474683d223230302522206865696768743d2232303025222f3e3c2f66696c7465723e3c2f646566733e3c7061746820643d224d37322e3836332034322e393439632d2e3636382d2e3338372d312e3432362d2e35392d322e3139372d2e3539732d312e3532392e3230342d322e3139372e35396c2d31302e30383120362e3033322d362e383520332e3933342d31302e30383120362e303332632d2e3636382e3338372d312e3432362e35392d322e3139372e3539732d312e3532392d2e3230342d322e3139372d2e35396c2d382e3031332d342e37323161342e353220342e35322030203020312d312e3538392d312e363136632d2e3338342d2e3636352d2e3539342d312e3431382d2e3630382d322e313837762d392e3331632d2e3031332d2e3737352e3138352d312e3533382e3537322d322e32303861342e323520342e323520302030203120312e3632352d312e3539356c372e3838342d342e3539632e3636382d2e33383720312e3432362d2e353920322e3139372d2e353973312e3532392e32303420322e3139372e35396c372e38383420342e353961342e353220342e353220302030203120312e35383920312e363136632e3338342e3636352e35393420312e3431382e36303820322e31383776362e3033326c362e38352d342e303635762d362e303332632e3031332d2e3737352d2e3138352d312e3533382d2e3537322d322e32303861342e323520342e32352030203020302d312e3632352d312e3539354c34312e3435362032342e3539632d2e3636382d2e3338372d312e3432362d2e35392d322e3139372d2e3539732d312e3532392e3230342d322e3139372e35396c2d31342e38363420382e36353561342e323520342e32352030203020302d312e36323520312e353935632d2e3338372e36372d2e35383520312e3433342d2e35373220322e3230387631372e343431632d2e3031332e3737352e31383520312e3533382e35373220322e32303861342e323520342e323520302030203020312e36323520312e3539356c31342e38363420382e363535632e3636382e33383720312e3432362e353920322e3139372e353973312e3532392d2e32303420322e3139372d2e35396c31302e3038312d352e39303120362e38352d342e3036352031302e3038312d352e393031632e3636382d2e33383720312e3432362d2e353920322e3139372d2e353973312e3532392e32303420322e3139372e35396c372e38383420342e353961342e353220342e353220302030203120312e35383920312e363136632e3338342e3636352e35393420312e3431382e36303820322e31383776392e333131632e3031332e3737352d2e31383520312e3533382d2e35373220322e32303861342e323520342e32352030203020312d312e36323520312e3539356c2d372e38383420342e373231632d2e3636382e3338372d312e3432362e35392d322e3139372e3539732d312e3532392d2e3230342d322e3139372d2e35396c2d372e3838342d342e353961342e353220342e35322030203020312d312e3538392d312e363136632d2e3338352d2e3636352d2e3539342d312e3431382d2e3630382d322e313837762d362e3033326c2d362e383520342e30363576362e303332632d2e3031332e3737352e31383520312e3533382e35373220322e32303861342e323520342e323520302030203020312e36323520312e3539356c31342e38363420382e363535632e3636382e33383720312e3432362e353920322e3139372e353973312e3532392d2e32303420322e3139372d2e35396c31342e3836342d382e363535632e3635372d2e33393420312e3230342d2e393520312e3538392d312e363136732e3539342d312e3431382e3630392d322e3138375635352e353338632e3031332d2e3737352d2e3138352d312e3533382d2e3537322d322e32303861342e323520342e32352030203020302d312e3632352d312e3539356c2d31342e3939332d382e3738367a222066696c6c3d2223666666222f3e3c646566733e3c6c696e6561724772616469656e742069643d2242222078313d2230222079313d2230222078323d22323730222079323d2232373022206772616469656e74556e6974733d227573657253706163654f6e557365223e3c73746f702073746f702d636f6c6f723d2223303730306238222f3e3c73746f70206f66667365743d2231222073746f702d636f6c6f723d2223303066663838222073746f702d6f7061636974793d222e3939222f3e3c2f6c696e6561724772616469656e743e3c2f646566733e3c7465787420783d2233322e352220793d223233312220666f6e742d73697a653d223237222066696c6c3d2223666666222066696c7465723d2275726c282341292220666f6e742d66616d696c793d22506c7573204a616b617274612053616e732c44656a6156752053616e732c4e6f746f20436f6c6f7220456d6f6a692c4170706c6520436f6c6f7220456d6f6a692c73616e732d73657269662220666f6e742d7765696768743d22626f6c64223e",
  "linkReferences": {},
  "deployedLinkReferences": {}
}