{
  "_format": "hh-sol-artifact-1",
  "contractName": "Domains",
  "sourceName": "contracts/Domains.sol",
  "abi": [
    {
      "inputs": [
        {
          "internalType": "string",
          "name": "_tld",
          "type": "string"
        }
      ],
      "stateMutability": "payable",
      "type": "constructor"
    },
    {
      "inputs": [],
      "name": "AlreadyRegistered",
      "type": "error"
    },
    {
      "inputs": [
        {
          "internalType": "string",
          "name": "name",
          "type": "string"
        }
      ],
      "name": "InvalidName",
      "type": "error"
    },
    {
      "inputs": [],
      "name": "Unauthorized",
      "type": "error"
    },
    {
      "anonymous": false,
      "inputs": [
        {
          "indexed": true,
          "internalType": "address",
          "name": "owner",
          "type": "address"
        },
        {
          "indexed": true,
          "internalType": "address",
          "name": "approved",
          "type": "address"
        },
        {
          "indexed": true,
          "internalType": "uint256",
          "name": "tokenId",
          "type": "uint256"
        }
      ],
      "name": "Approval",
      "type": "event"
    },
    {
      "anonymous": false,
      "inputs": [
        {
          "indexed": true,
          "internalType": "address",
          "name": "owner",
          "type": "address"
        },
        {
          "indexed": true,
          "internalType": "address",
          "name": "operator",
          "type": "address"
        },
        {
          "indexed": false,
          "internalType": "bool",
          "name": "approved",
          "type": "bool"
        }
      ],
      "name": "ApprovalForAll",
      "type": "event"
    },
    {
      "anonymous": false,
      "inputs": [
        {
          "indexed": false,
          "internalType": "uint256",
          "name": "domainId",
          "type": "uint256"
        },
        {
          "indexed": false,
          "internalType": "string",
          "name": "name",
          "type": "string"
        }
      ],
      "name": "NewDomain",
      "type": "event"
    },
    {
      "anonymous": false,
      "inputs": [
        {
          "indexed": true,
          "internalType": "address",
          "name": "from",
          "type": "address"
        },
        {
          "indexed": true,
          "internalType": "address",
          "name": "to",
          "type": "address"
        },
        {
          "indexed": true,
          "internalType": "uint256",
          "name": "tokenId",
          "type": "uint256"
        }
      ],
      "name": "Transfer",
      "type": "event"
    },
    {
      "inputs": [
        {
          "internalType": "address",
          "name": "to",
          "type": "address"
        },
        {
          "internalType": "uint256",
          "name": "tokenId",
          "type": "uint256"
        }
      ],
      "name": "approve",
      "outputs": [],
      "stateMutability": "nonpayable",
      "type": "function"
    },
    {
      "inputs": [
        {
          "internalType": "address",
          "name": "owner",
          "type": "address"
        }
      ],
      "name": "balanceOf",
      "outputs": [
        {
          "internalType": "uint256",
          "name": "",
          "type": "uint256"
        }
      ],
      "stateMutability": "view",
      "type": "function"
    },
    {
      "inputs": [
        {
          "internalType": "string",
          "name": "",
          "type": "string"
        }
      ],
      "name": "domains",
      "outputs": [
        {
          "internalType": "address",
          "name": "",
          "type": "address"
        }
      ],
      "stateMutability": "view",
      "type": "function"
    },
    {
      "inputs": [
        {
          "internalType": "string",
          "name": "name",
          "type": "string"
        }
      ],
      "name": "getAddress",
      "outputs": [
        {
          "internalType": "address",
          "name": "",
          "type": "address"
        }
      ],
      "stateMutability": "view",
      "type": "function"
    },
    {
      "inputs": [],
      "name": "getAllNames",
      "outputs": [
        {
          "internalType": "string[]",
          "name": "",
          "type": "string[]"
        }
      ],
      "stateMutability": "view",
      "type": "function"
    },
    {
      "inputs": [
        {
          "internalType": "uint256",
          "name": "tokenId",
          "type": "uint256"
        }
      ],
      "name": "getApproved",
      "outputs": [
        {
          "internalType": "address",
          "name": "",
          "type": "address"
        }
      ],
      "stateMutability": "view",
      "type": "function"
    },
    {
      "inputs": [
        {
          "internalType": "string",
          "name": "name",
          "type": "string"
        }
      ],
      "name": "getRecord",
      "outputs": [
        {
          "components": [
            {
              "internalType": "string",
              "name": "name",
              "type": "string"
            },
            {
              "internalType": "string",
              "name": "url",
              "type": "string"
            },
            {
              "internalType": "string",
              "name": "picture",
              "type": "string"
            },
            {
              "internalType": "string",
              "name": "description",
              "type": "string"
            },
            {
              "internalType": "string",
              "name": "accounts",
              "type": "string"
            },
            {
              "internalType": "string",
              "name": "addresses",
              "type": "string"
            }
          ],
          "internalType": "struct DomainsBase.DomainInfo",
          "name": "",
          "type": "tuple"
        }
      ],
      "stateMutability": "view",
      "type": "function"
    },
    {
      "inputs": [
        {
          "internalType": "address",
          "name": "owner",
          "type": "address"
        },
        {
          "internalType": "address",
          "name": "operator",
          "type": "address"
        }
      ],
      "name": "isApprovedForAll",
      "outputs": [
        {
          "internalType": "bool",
          "name": "",
          "type": "bool"
        }
      ],
      "stateMutability": "view",
      "type": "function"
    },
    {
      "inputs": [],
      "name": "isOwner",
      "outputs": [
        {
          "internalType": "bool",
          "name": "",
          "type": "bool"
        }
      ],
      "stateMutability": "view",
      "type": "function"
    },
    {
      "inputs": [],
      "name": "name",
      "outputs": [
        {
          "internalType": "string",
          "name": "",
          "type": "string"
        }
      ],
      "stateMutability": "view",
      "type": "function"
    },
    {
      "inputs": [
        {
          "internalType": "uint256",
          "name": "",
          "type": "uint256"
        }
      ],
      "name": "names",
      "outputs": [
        {
          "internalType": "string",
          "name": "",
          "type": "string"
        }
      ],
      "stateMutability": "view",
      "type": "function"
    },
    {
      "inputs": [],
      "name": "owner",
      "outputs": [
        {
          "internalType": "address payable",
          "name": "",
          "type": "address"
        }
      ],
      "stateMutability": "view",
      "type": "function"
    },
    {
      "inputs": [
        {
          "internalType": "uint256",
          "name": "tokenId",
          "type": "uint256"
        }
      ],
      "name": "ownerOf",
      "outputs": [
        {
          "internalType": "address",
          "name": "",
          "type": "address"
        }
      ],
      "stateMutability": "view",
      "type": "function"
    },
    {
      "inputs": [
        {
          "internalType": "string",
          "name": "name",
          "type": "string"
        }
      ],
      "name": "price",
      "outputs": [
        {
          "internalType": "uint256",
          "name": "",
          "type": "uint256"
        }
      ],
      "stateMutability": "pure",
      "type": "function"
    },
    {
      "inputs": [
        {
          "internalType": "string",
          "name": "",
          "type": "string"
        }
      ],
      "name": "records",
      "outputs": [
        {
          "internalType": "string",
          "name": "name",
          "type": "string"
        },
        {
          "internalType": "string",
          "name": "url",
          "type": "string"
        },
        {
          "internalType": "string",
          "name": "picture",
          "type": "string"
        },
        {
          "internalType": "string",
          "name": "description",
          "type": "string"
        },
        {
          "internalType": "string",
          "name": "accounts",
          "type": "string"
        },
        {
          "internalType": "string",
          "name": "addresses",
          "type": "string"
        }
      ],
      "stateMutability": "view",
      "type": "function"
    },
    {
      "inputs": [
        {
          "internalType": "string",
          "name": "name",
          "type": "string"
        }
      ],
      "name": "register",
      "outputs": [],
      "stateMutability": "payable",
      "type": "function"
    },
    {
      "inputs": [
        {
          "internalType": "address",
          "name": "from",
          "type": "address"
        },
        {
          "internalType": "address",
          "name": "to",
          "type": "address"
        },
        {
          "internalType": "uint256",
          "name": "tokenId",
          "type": "uint256"
        }
      ],
      "name": "safeTransferFrom",
      "outputs": [],
      "stateMutability": "nonpayable",
      "type": "function"
    },
    {
      "inputs": [
        {
          "internalType": "address",
          "name": "from",
          "type": "address"
        },
        {
          "internalType": "address",
          "name": "to",
          "type": "address"
        },
        {
          "internalType": "uint256",
          "name": "tokenId",
          "type": "uint256"
        },
        {
          "internalType": "bytes",
          "name": "_data",
          "type": "bytes"
        }
      ],
      "name": "safeTransferFrom",
      "outputs": [],
      "stateMutability": "nonpayable",
      "type": "function"
    },
    {
      "inputs": [
        {
          "internalType": "address",
          "name": "operator",
          "type": "address"
        },
        {
          "internalType": "bool",
          "name": "approved",
          "type": "bool"
        }
      ],
      "name": "setApprovalForAll",
      "outputs": [],
      "stateMutability": "nonpayable",
      "type": "function"
    },
    {
      "inputs": [
        {
          "internalType": "string",
          "name": "name",
          "type": "string"
        },
        {
          "internalType": "string",
          "name": "_url",
          "type": "string"
        },
        {
          "internalType": "string",
          "name": "_picture",
          "type": "string"
        },
        {
          "internalType": "string",
          "name": "_description",
          "type": "string"
        },
        {
          "internalType": "string",
          "name": "_accounts",
          "type": "string"
        },
        {
          "internalType": "string",
          "name": "_addresses",
          "type": "string"
        }
      ],
      "name": "setRecord",
      "outputs": [],
      "stateMutability": "nonpayable",
      "type": "function"
    },
    {
      "inputs": [
        {
          "internalType": "bytes4",
          "name": "interfaceId",
          "type": "bytes4"
        }
      ],
      "name": "supportsInterface",
      "outputs": [
        {
          "internalType": "bool",
          "name": "",
          "type": "bool"
        }
      ],
      "stateMutability": "view",
      "type": "function"
    },
    {
      "inputs": [],
      "name": "symbol",
      "outputs": [
        {
          "internalType": "string",
          "name": "",
          "type": "string"
        }
      ],
      "stateMutability": "view",
      "type": "function"
    },
    {
      "inputs": [],
      "name": "tld",
      "outputs": [
        {
          "internalType": "string",
          "name": "",
          "type": "string"
        }
      ],
      "stateMutability": "view",
      "type": "function"
    },
    {
      "inputs": [
        {
          "internalType": "uint256",
          "name": "tokenId",
          "type": "uint256"
        }
      ],
      "name": "tokenURI",
      "outputs": [
        {
          "internalType": "string",
          "name": "",
          "type": "string"
        }
      ],
      "stateMutability": "view",
      "type": "function"
    },
    {
      "inputs": [
        {
          "internalType": "address",
          "name": "from",
          "type": "address"
        },
        {
          "internalType": "address",
          "name": "to",
          "type": "address"
        },
        {
          "internalType": "uint256",
          "name": "tokenId",
          "type": "uint256"
        }
      ],
      "name": "transferFrom",
      "outputs": [],
      "stateMutability": "nonpayable",
      "type": "function"
    },
    {
      "inputs": [
        {
          "internalType": "string",
          "name": "name",
          "type": "string"
        }
      ],
      "name": "valid",
      "outputs": [
        {
          "internalType": "bool",
          "name": "",
          "type": "bool"
        }
      ],
      "stateMutability": "pure",
      "type": "function"
    },
    {
      "inputs": [],
      "name": "withdraw",
      "outputs": [],
      "stateMutability": "nonpayable",
      "type": "function"
    }
  ],
  "bytecode": "0x6080604052604051806108a0016040528061086b815260200162005d7d61086b9139600c908051906020019062000038929190620002f5565b506040518060400160405280600d81526020017f3c2f746578743e3c2f7376673e00000000000000000000000000000000000000815250600d908051906020019062000086929190620002f5565b50604051620065e8380380620065e88339818101604052810190620000ac919062000417565b6040518060400160405280601081526020017f444556204e616d652053657276696365000000000000000000000000000000008152506040518060400160405280600381526020017f444e530000000000000000000000000000000000000000000000000000000000815250816004908051906020019062000130929190620002f5565b50806005908051906020019062000149929190620002f5565b50505033600e60006101000a81548173ffffffffffffffffffffffffffffffffffffffff021916908373ffffffffffffffffffffffffffffffffffffffff1602179055508060009080519060200190620001a5929190620002f5565b50620001f26040518060400160405280601881526020017f2573206e616d652073657276696365206465706c6f7965640000000000000000815250826200021060201b620023551760201c565b62000209600b620002b660201b620023f11760201c565b5062000664565b620002b28282604051602401620002299291906200049d565b6040516020818303038152906040527f4b5c4277000000000000000000000000000000000000000000000000000000007bffffffffffffffffffffffffffffffffffffffffffffffffffffffff19166020820180517bffffffffffffffffffffffffffffffffffffffffffffffffffffffff8381831617835250505050620002cc60201b60201c565b5050565b6001816000016000828254019250508190555050565b60008151905060006a636f6e736f6c652e6c6f679050602083016000808483855afa5050505050565b828054620003039062000589565b90600052602060002090601f01602090048101928262000327576000855562000373565b82601f106200034257805160ff191683800117855562000373565b8280016001018555821562000373579182015b828111156200037257825182559160200191906001019062000355565b5b50905062000382919062000386565b5090565b5b80821115620003a157600081600090555060010162000387565b5090565b6000620003bc620003b68462000501565b620004d8565b905082815260208101848484011115620003d557600080fd5b620003e284828562000553565b509392505050565b600082601f830112620003fc57600080fd5b81516200040e848260208601620003a5565b91505092915050565b6000602082840312156200042a57600080fd5b600082015167ffffffffffffffff8111156200044557600080fd5b6200045384828501620003ea565b91505092915050565b6000620004698262000537565b62000475818562000542565b93506200048781856020860162000553565b620004928162000653565b840191505092915050565b60006040820190508181036000830152620004b981856200045c565b90508181036020830152620004cf81846200045c565b90509392505050565b6000620004e4620004f7565b9050620004f28282620005bf565b919050565b6000604051905090565b600067ffffffffffffffff8211156200051f576200051e62000624565b5b6200052a8262000653565b9050602081019050919050565b600081519050919050565b600082825260208201905092915050565b60005b838110156200057357808201518184015260208101905062000556565b8381111562000583576000848401525b50505050565b60006002820490506001821680620005a257607f821691505b60208210811415620005b957620005b8620005f5565b5b50919050565b620005ca8262000653565b810181811067ffffffffffffffff82111715620005ec57620005eb62000624565b5b80604052505050565b7f4e487b7100000000000000000000000000000000000000000000000000000000600052602260045260246000fd5b7f4e487b7100000000000000000000000000000000000000000000000000000000600052604160045260246000fd5b6000601f19601f8301169050919050565b61570980620006746000396000f3fe60806040526004361061019c5760003560e01c80636352211e116100ec578063b88d4fde1161008a578063e985e9c511610064578063e985e9c514610629578063f2c298be14610666578063fb825e5f14610682578063fe2c6198146106ad5761019c565b8063b88d4fde14610586578063bf40fac1146105af578063c87b56dd146105ec5761019c565b80638f32d59b116100c65780638f32d59b146104ca57806395d89b41146104f55780639791c09714610520578063a22cb4651461055d5761019c565b80636352211e1461042557806370a08231146104625780638da5cb5b1461049f5761019c565b806323b872dd116101595780633ccfd60b116101335780633ccfd60b1461036657806342842e0e1461037d5780634622ab03146103a6578063541e771d146103e35761019c565b806323b872dd146102d557806326449235146102fe5780632d5514321461033b5761019c565b806301ffc9a7146101a157806306fdde03146101de578063081812fc14610209578063095ea7b3146102465780630c9e23861461026f57806311dd884514610298575b600080fd5b3480156101ad57600080fd5b506101c860048036038101906101c39190613bd5565b6106ea565b6040516101d59190614655565b60405180910390f35b3480156101ea57600080fd5b506101f36107cc565b6040516102009190614694565b60405180910390f35b34801561021557600080fd5b50610230600480360381019061022b9190613dcc565b61085e565b60405161023d91906145b1565b60405180910390f35b34801561025257600080fd5b5061026d60048036038101906102689190613b99565b6108e3565b005b34801561027b57600080fd5b5061029660048036038101906102919190613c6c565b6109fb565b005b3480156102a457600080fd5b506102bf60048036038101906102ba9190613c27565b610beb565b6040516102cc9190614a57565b60405180910390f35b3480156102e157600080fd5b506102fc60048036038101906102f79190613a93565b610f92565b005b34801561030a57600080fd5b5061032560048036038101906103209190613d8b565b610ff2565b60405161033291906145b1565b60405180910390f35b34801561034757600080fd5b5061035061103b565b60405161035d9190614694565b60405180910390f35b34801561037257600080fd5b5061037b6110c9565b005b34801561038957600080fd5b506103a4600480360381019061039f9190613a93565b61118f565b005b3480156103b257600080fd5b506103cd60048036038101906103c89190613dcc565b6111af565b6040516103da9190614694565b60405180910390f35b3480156103ef57600080fd5b5061040a60048036038101906104059190613d8b565b61124f565b60405161041c969594939291906146ed565b60405180910390f35b34801561043157600080fd5b5061044c60048036038101906104479190613dcc565b6115d1565b60405161045991906145b1565b60405180910390f35b34801561046e57600080fd5b5061048960048036038101906104849190613a2e565b611683565b6040516104969190614a79565b60405180910390f35b3480156104ab57600080fd5b506104b461173b565b6040516104c191906145cc565b60405180910390f35b3480156104d657600080fd5b506104df611761565b6040516104ec9190614655565b60405180910390f35b34801561050157600080fd5b5061050a6117b9565b6040516105179190614694565b60405180910390f35b34801561052c57600080fd5b5061054760048036038101906105429190613c27565b61184b565b6040516105549190614655565b60405180910390f35b34801561056957600080fd5b50610584600480360381019061057f9190613b5d565b6118ff565b005b34801561059257600080fd5b506105ad60048036038101906105a89190613ae2565b611915565b005b3480156105bb57600080fd5b506105d660048036038101906105d19190613c27565b611977565b6040516105e391906145b1565b60405180910390f35b3480156105f857600080fd5b50610613600480360381019061060e9190613dcc565b6119c2565b6040516106209190614694565b60405180910390f35b34801561063557600080fd5b50610650600480360381019061064b9190613a57565b611b14565b60405161065d9190614655565b60405180910390f35b610680600480360381019061067b9190613c27565b611ba8565b005b34801561068e57600080fd5b5061069761205f565b6040516106a49190614633565b60405180910390f35b3480156106b957600080fd5b506106d460048036038101906106cf9190613c27565b6122af565b6040516106e19190614a79565b60405180910390f35b60007f80ac58cd000000000000000000000000000000000000000000000000000000007bffffffffffffffffffffffffffffffffffffffffffffffffffffffff1916827bffffffffffffffffffffffffffffffffffffffffffffffffffffffff191614806107b557507f5b5e139f000000000000000000000000000000000000000000000000000000007bffffffffffffffffffffffffffffffffffffffffffffffffffffffff1916827bffffffffffffffffffffffffffffffffffffffffffffffffffffffff1916145b806107c557506107c482612407565b5b9050919050565b6060600480546107db90614dd5565b80601f016020809104026020016040519081016040528092919081815260200182805461080790614dd5565b80156108545780601f1061082957610100808354040283529160200191610854565b820191906000526020600020905b81548152906001019060200180831161083757829003601f168201915b5050505050905090565b600061086982612471565b6108a8576040517f08c379a000000000000000000000000000000000000000000000000000000000815260040161089f906149b7565b60405180910390fd5b6008600083815260200190815260200160002060009054906101000a900473ffffffffffffffffffffffffffffffffffffffff169050919050565b60006108ee826115d1565b90508073ffffffffffffffffffffffffffffffffffffffff168373ffffffffffffffffffffffffffffffffffffffff16141561095f576040517f08c379a000000000000000000000000000000000000000000000000000000000815260040161095690614a17565b60405180910390fd5b8073ffffffffffffffffffffffffffffffffffffffff1661097e6124dd565b73ffffffffffffffffffffffffffffffffffffffff1614806109ad57506109ac816109a76124dd565b611b14565b5b6109ec576040517f08c379a00000000000000000000000000000000000000000000000000000000081526004016109e3906148f7565b60405180910390fd5b6109f683836124e5565b505050565b60018787604051610a0d92919061447e565b908152602001604051809103902060009054906101000a900473ffffffffffffffffffffffffffffffffffffffff1673ffffffffffffffffffffffffffffffffffffffff163373ffffffffffffffffffffffffffffffffffffffff1614610aa0576040517f82b4290000000000000000000000000000000000000000000000000000000000815260040160405180910390fd5b6040518060c0016040528088888080601f016020809104026020016040519081016040528093929190818152602001838380828437600081840152601f19601f8201169050808301925050505050505081526020018681526020018581526020018481526020018381526020018281525060028888604051610b2392919061447e565b90815260200160405180910390206000820151816000019080519060200190610b4d92919061374c565b506020820151816001019080519060200190610b6a92919061374c565b506040820151816002019080519060200190610b8792919061374c565b506060820151816003019080519060200190610ba492919061374c565b506080820151816004019080519060200190610bc192919061374c565b5060a0820151816005019080519060200190610bde92919061374c565b5090505050505050505050565b610bf36137d2565b60028383604051610c0592919061447e565b90815260200160405180910390206040518060c0016040529081600082018054610c2e90614dd5565b80601f0160208091040260200160405190810160405280929190818152602001828054610c5a90614dd5565b8015610ca75780601f10610c7c57610100808354040283529160200191610ca7565b820191906000526020600020905b815481529060010190602001808311610c8a57829003601f168201915b50505050508152602001600182018054610cc090614dd5565b80601f0160208091040260200160405190810160405280929190818152602001828054610cec90614dd5565b8015610d395780601f10610d0e57610100808354040283529160200191610d39565b820191906000526020600020905b815481529060010190602001808311610d1c57829003601f168201915b50505050508152602001600282018054610d5290614dd5565b80601f0160208091040260200160405190810160405280929190818152602001828054610d7e90614dd5565b8015610dcb5780601f10610da057610100808354040283529160200191610dcb565b820191906000526020600020905b815481529060010190602001808311610dae57829003601f168201915b50505050508152602001600382018054610de490614dd5565b80601f0160208091040260200160405190810160405280929190818152602001828054610e1090614dd5565b8015610e5d5780601f10610e3257610100808354040283529160200191610e5d565b820191906000526020600020905b815481529060010190602001808311610e4057829003601f168201915b50505050508152602001600482018054610e7690614dd5565b80601f0160208091040260200160405190810160405280929190818152602001828054610ea290614dd5565b8015610eef5780601f10610ec457610100808354040283529160200191610eef565b820191906000526020600020905b815481529060010190602001808311610ed257829003601f168201915b50505050508152602001600582018054610f0890614dd5565b80601f0160208091040260200160405190810160405280929190818152602001828054610f3490614dd5565b8015610f815780601f10610f5657610100808354040283529160200191610f81565b820191906000526020600020905b815481529060010190602001808311610f6457829003601f168201915b505050505081525050905092915050565b610fa3610f9d6124dd565b8261259e565b610fe2576040517f08c379a0000000000000000000000000000000000000000000000000000000008152600401610fd990614a37565b60405180910390fd5b610fed83838361267c565b505050565b6001818051602081018201805184825260208301602085012081835280955050505050506000915054906101000a900473ffffffffffffffffffffffffffffffffffffffff1681565b6000805461104890614dd5565b80601f016020809104026020016040519081016040528092919081815260200182805461107490614dd5565b80156110c15780601f10611096576101008083540402835291602001916110c1565b820191906000526020600020905b8154815290600101906020018083116110a457829003601f168201915b505050505081565b6110d1611761565b6110da57600080fd5b600047905060003373ffffffffffffffffffffffffffffffffffffffff16826040516111059061459c565b60006040518083038185875af1925050503d8060008114611142576040519150601f19603f3d011682016040523d82523d6000602084013e611147565b606091505b505090508061118b576040517f08c379a0000000000000000000000000000000000000000000000000000000008152600401611182906148b7565b60405180910390fd5b5050565b6111aa83838360405180602001604052806000815250611915565b505050565b600360205280600052604060002060009150905080546111ce90614dd5565b80601f01602080910402602001604051908101604052809291908181526020018280546111fa90614dd5565b80156112475780601f1061121c57610100808354040283529160200191611247565b820191906000526020600020905b81548152906001019060200180831161122a57829003601f168201915b505050505081565b60028180516020810182018051848252602083016020850120818352809550505050505060009150905080600001805461128890614dd5565b80601f01602080910402602001604051908101604052809291908181526020018280546112b490614dd5565b80156113015780601f106112d657610100808354040283529160200191611301565b820191906000526020600020905b8154815290600101906020018083116112e457829003601f168201915b50505050509080600101805461131690614dd5565b80601f016020809104026020016040519081016040528092919081815260200182805461134290614dd5565b801561138f5780601f106113645761010080835404028352916020019161138f565b820191906000526020600020905b81548152906001019060200180831161137257829003601f168201915b5050505050908060020180546113a490614dd5565b80601f01602080910402602001604051908101604052809291908181526020018280546113d090614dd5565b801561141d5780601f106113f25761010080835404028352916020019161141d565b820191906000526020600020905b81548152906001019060200180831161140057829003601f168201915b50505050509080600301805461143290614dd5565b80601f016020809104026020016040519081016040528092919081815260200182805461145e90614dd5565b80156114ab5780601f10611480576101008083540402835291602001916114ab565b820191906000526020600020905b81548152906001019060200180831161148e57829003601f168201915b5050505050908060040180546114c090614dd5565b80601f01602080910402602001604051908101604052809291908181526020018280546114ec90614dd5565b80156115395780601f1061150e57610100808354040283529160200191611539565b820191906000526020600020905b81548152906001019060200180831161151c57829003601f168201915b50505050509080600501805461154e90614dd5565b80601f016020809104026020016040519081016040528092919081815260200182805461157a90614dd5565b80156115c75780601f1061159c576101008083540402835291602001916115c7565b820191906000526020600020905b8154815290600101906020018083116115aa57829003601f168201915b5050505050905086565b6000806006600084815260200190815260200160002060009054906101000a900473ffffffffffffffffffffffffffffffffffffffff169050600073ffffffffffffffffffffffffffffffffffffffff168173ffffffffffffffffffffffffffffffffffffffff16141561167a576040517f08c379a000000000000000000000000000000000000000000000000000000000815260040161167190614937565b60405180910390fd5b80915050919050565b60008073ffffffffffffffffffffffffffffffffffffffff168273ffffffffffffffffffffffffffffffffffffffff1614156116f4576040517f08c379a00000000000000000000000000000000000000000000000000000000081526004016116eb90614917565b60405180910390fd5b600760008373ffffffffffffffffffffffffffffffffffffffff1673ffffffffffffffffffffffffffffffffffffffff168152602001908152602001600020549050919050565b600e60009054906101000a900473ffffffffffffffffffffffffffffffffffffffff1681565b6000600e60009054906101000a900473ffffffffffffffffffffffffffffffffffffffff1673ffffffffffffffffffffffffffffffffffffffff163373ffffffffffffffffffffffffffffffffffffffff1614905090565b6060600580546117c890614dd5565b80601f01602080910402602001604051908101604052809291908181526020018280546117f490614dd5565b80156118415780601f1061181657610100808354040283529160200191611841565b820191906000526020600020905b81548152906001019060200180831161182457829003601f168201915b5050505050905090565b6000600361189c84848080601f016020809104026020016040519081016040528093929190818152602001838380828437600081840152601f19601f820116905080830192505050505050506128e3565b101580156118f75750600f6118f484848080601f016020809104026020016040519081016040528093929190818152602001838380828437600081840152601f19601f820116905080830192505050505050506128e3565b11155b905092915050565b61191161190a6124dd565b8383612abe565b5050565b6119266119206124dd565b8361259e565b611965576040517f08c379a000000000000000000000000000000000000000000000000000000000815260040161195c90614a37565b60405180910390fd5b61197184848484612c2b565b50505050565b60006001838360405161198b92919061447e565b908152602001604051809103902060009054906101000a900473ffffffffffffffffffffffffffffffffffffffff16905092915050565b60606119cd82612471565b611a0c576040517f08c379a0000000000000000000000000000000000000000000000000000000008152600401611a0390614997565b60405180910390fd5b6000600a60008481526020019081526020016000208054611a2c90614dd5565b80601f0160208091040260200160405190810160405280929190818152602001828054611a5890614dd5565b8015611aa55780601f10611a7a57610100808354040283529160200191611aa5565b820191906000526020600020905b815481529060010190602001808311611a8857829003601f168201915b505050505090506000611ab6612c87565b9050600081511415611acc578192505050611b0f565b600082511115611b01578082604051602001611ae99291906144c8565b60405160208183030381529060405292505050611b0f565b611b0a84612c9e565b925050505b919050565b6000600960008473ffffffffffffffffffffffffffffffffffffffff1673ffffffffffffffffffffffffffffffffffffffff16815260200190815260200160002060008373ffffffffffffffffffffffffffffffffffffffff1673ffffffffffffffffffffffffffffffffffffffff16815260200190815260200160002060009054906101000a900460ff16905092915050565b600073ffffffffffffffffffffffffffffffffffffffff1660018383604051611bd292919061447e565b908152602001604051809103902060009054906101000a900473ffffffffffffffffffffffffffffffffffffffff1673ffffffffffffffffffffffffffffffffffffffff1614611c4e576040517f3a81d6fc00000000000000000000000000000000000000000000000000000000815260040160405180910390fd5b611c58828261184b565b611c9b5781816040517f7f19f48d000000000000000000000000000000000000000000000000000000008152600401611c92929190614670565b60405180910390fd5b6000611ca783836122af565b905080341015611cec576040517f08c379a0000000000000000000000000000000000000000000000000000000008152600401611ce3906149f7565b60405180910390fd5b600083836000604051602001611d0493929190614497565b60405160208183030381529060405290506000600c82600d604051602001611d2e939291906144ec565b60405160208183030381529060405290506000611d4b600b612d45565b90506000611d9c87878080601f016020809104026020016040519081016040528093929190818152602001838380828437600081840152601f19601f820116905080830192505050505050506128e3565b90506000611da982612d53565b9050611e9d60405180606001604052806031815260200161562a6031913989898080601f016020809104026020016040519081016040528093929190818152602001838380828437600081840152601f19601f8201169050808301925050505050505060008054611e1990614dd5565b80601f0160208091040260200160405190810160405280929190818152602001828054611e4590614dd5565b8015611e925780601f10611e6757610100808354040283529160200191611e92565b820191906000526020600020905b815481529060010190602001808311611e7557829003601f168201915b505050505086612f00565b6000611ed386611eac87612fa2565b84604051602001611ebf9392919061451d565b604051602081830303815290604052612fa2565b9050600081604051602001611ee8919061457a565b6040516020818303038152906040529050611f1a6040518060600160405280603981526020016155f160399139613160565b611f596040518060400160405280600e81526020017f46696e616c20746f6b656e55524900000000000000000000000000000000000081525082612355565b611f7a60405180606001604052806039815260200161565b60399139613160565b611f8433866131f9565b611f8e8582613217565b3360018b8b604051611fa192919061447e565b908152602001604051809103902060006101000a81548173ffffffffffffffffffffffffffffffffffffffff021916908373ffffffffffffffffffffffffffffffffffffffff160217905550898960036000888152602001908152602001600020919061200f929190613808565b507f9ac1972810adccc1391c4f18e1204e49503d17c7e678c3fc9ef6e853f25057ef8588604051612041929190614a94565b60405180910390a1612053600b6123f1565b50505050505050505050565b606061209f6040518060400160405280601f81526020017f47657474696e6720616c6c206e616d65732066726f6d20636f6e747261637400815250613160565b60006120ab600b612d45565b67ffffffffffffffff8111156120ea577f4e487b7100000000000000000000000000000000000000000000000000000000600052604160045260246000fd5b60405190808252806020026020018201604052801561211d57816020015b60608152602001906001900390816121085790505b50905060005b61212d600b612d45565b8110156122a75760036000828152602001908152602001600020805461215290614dd5565b80601f016020809104026020016040519081016040528092919081815260200182805461217e90614dd5565b80156121cb5780601f106121a0576101008083540402835291602001916121cb565b820191906000526020600020905b8154815290600101906020018083116121ae57829003601f168201915b5050505050828281518110612209577f4e487b7100000000000000000000000000000000000000000000000000000000600052603260045260246000fd5b60200260200101819052506122946040518060400160405280601781526020017f4e616d6520666f7220746f6b656e20256420697320257300000000000000000081525082848481518110612287577f4e487b7100000000000000000000000000000000000000000000000000000000600052603260045260246000fd5b602002602001015161328b565b808061229f90614e38565b915050612123565b508091505090565b6000806122ff84848080601f016020809104026020016040519081016040528093929190818152602001838380828437600081840152601f19601f820116905080830192505050505050506128e3565b90506000811161230e57600080fd5b6003811415612328576706f05b59d3b2000091505061234f565b600481141561234257670429d069189e000091505061234f565b67016345785d8a00009150505b92915050565b6123ed828260405160240161236b9291906146b6565b6040516020818303038152906040527f4b5c4277000000000000000000000000000000000000000000000000000000007bffffffffffffffffffffffffffffffffffffffffffffffffffffffff19166020820180517bffffffffffffffffffffffffffffffffffffffffffffffffffffffff838183161783525050505061332a565b5050565b6001816000016000828254019250508190555050565b60007f01ffc9a7000000000000000000000000000000000000000000000000000000007bffffffffffffffffffffffffffffffffffffffffffffffffffffffff1916827bffffffffffffffffffffffffffffffffffffffffffffffffffffffff1916149050919050565b60008073ffffffffffffffffffffffffffffffffffffffff166006600084815260200190815260200160002060009054906101000a900473ffffffffffffffffffffffffffffffffffffffff1673ffffffffffffffffffffffffffffffffffffffff1614159050919050565b600033905090565b816008600083815260200190815260200160002060006101000a81548173ffffffffffffffffffffffffffffffffffffffff021916908373ffffffffffffffffffffffffffffffffffffffff160217905550808273ffffffffffffffffffffffffffffffffffffffff16612558836115d1565b73ffffffffffffffffffffffffffffffffffffffff167f8c5be1e5ebec7d5bd14f71427d1e84f3dd0314c0f7b2291e5b200ac8c7c3b92560405160405180910390a45050565b60006125a982612471565b6125e8576040517f08c379a00000000000000000000000000000000000000000000000000000000081526004016125df906148d7565b60405180910390fd5b60006125f3836115d1565b90508073ffffffffffffffffffffffffffffffffffffffff168473ffffffffffffffffffffffffffffffffffffffff16148061263557506126348185611b14565b5b8061267357508373ffffffffffffffffffffffffffffffffffffffff1661265b8461085e565b73ffffffffffffffffffffffffffffffffffffffff16145b91505092915050565b8273ffffffffffffffffffffffffffffffffffffffff1661269c826115d1565b73ffffffffffffffffffffffffffffffffffffffff16146126f2576040517f08c379a00000000000000000000000000000000000000000000000000000000081526004016126e990614837565b60405180910390fd5b600073ffffffffffffffffffffffffffffffffffffffff168273ffffffffffffffffffffffffffffffffffffffff161415612762576040517f08c379a000000000000000000000000000000000000000000000000000000000815260040161275990614877565b60405180910390fd5b61276d838383613353565b6127786000826124e5565b6001600760008573ffffffffffffffffffffffffffffffffffffffff1673ffffffffffffffffffffffffffffffffffffffff16815260200190815260200160002060008282546127c89190614cd9565b925050819055506001600760008473ffffffffffffffffffffffffffffffffffffffff1673ffffffffffffffffffffffffffffffffffffffff168152602001908152602001600020600082825461281f9190614bf8565b92505081905550816006600083815260200190815260200160002060006101000a81548173ffffffffffffffffffffffffffffffffffffffff021916908373ffffffffffffffffffffffffffffffffffffffff160217905550808273ffffffffffffffffffffffffffffffffffffffff168473ffffffffffffffffffffffffffffffffffffffff167fddf252ad1be2c89b69c2b068fc378daa952ba7f163c4a11628f55a4df523b3ef60405160405180910390a46128de838383613358565b505050565b60008060008084519050600092505b80821015612ab3576000858381518110612935577f4e487b7100000000000000000000000000000000000000000000000000000000600052603260045260246000fd5b602001015160f81c60f81b9050608060f81b817effffffffffffffffffffffffffffffffffffffffffffffffffffffffffffff191610156129845760018361297d9190614bf8565b9250612a9f565b60e060f81b817effffffffffffffffffffffffffffffffffffffffffffffffffffffffffffff191610156129c6576002836129bf9190614bf8565b9250612a9e565b60f060f81b817effffffffffffffffffffffffffffffffffffffffffffffffffffffffffffff19161015612a0857600383612a019190614bf8565b9250612a9d565b60f8801b817effffffffffffffffffffffffffffffffffffffffffffffffffffffffffffff19161015612a4957600483612a429190614bf8565b9250612a9c565b60fc60f81b817effffffffffffffffffffffffffffffffffffffffffffffffffffffffffffff19161015612a8b57600583612a849190614bf8565b9250612a9b565b600683612a989190614bf8565b92505b5b5b5b5b508280612aab90614e38565b9350506128f2565b829350505050919050565b8173ffffffffffffffffffffffffffffffffffffffff168373ffffffffffffffffffffffffffffffffffffffff161415612b2d576040517f08c379a0000000000000000000000000000000000000000000000000000000008152600401612b2490614897565b60405180910390fd5b80600960008573ffffffffffffffffffffffffffffffffffffffff1673ffffffffffffffffffffffffffffffffffffffff16815260200190815260200160002060008473ffffffffffffffffffffffffffffffffffffffff1673ffffffffffffffffffffffffffffffffffffffff16815260200190815260200160002060006101000a81548160ff0219169083151502179055508173ffffffffffffffffffffffffffffffffffffffff168373ffffffffffffffffffffffffffffffffffffffff167f17307eab39ab6107e8899845ad3d59bd9653f200f220920489ca2b5937696c3183604051612c1e9190614655565b60405180910390a3505050565b612c3684848461267c565b612c428484848461335d565b612c81576040517f08c379a0000000000000000000000000000000000000000000000000000000008152600401612c7890614817565b60405180910390fd5b50505050565b606060405180602001604052806000815250905090565b6060612ca982612471565b612ce8576040517f08c379a0000000000000000000000000000000000000000000000000000000008152600401612cdf906149d7565b60405180910390fd5b6000612cf2612c87565b90506000815111612d125760405180602001604052806000815250612d3d565b80612d1c84612d53565b604051602001612d2d9291906144c8565b6040516020818303038152906040525b915050919050565b600081600001549050919050565b60606000821415612d9b576040518060400160405280600181526020017f30000000000000000000000000000000000000000000000000000000000000008152509050612efb565b600082905060005b60008214612dcd578080612db690614e38565b915050600a82612dc69190614c4e565b9150612da3565b60008167ffffffffffffffff811115612e0f577f4e487b7100000000000000000000000000000000000000000000000000000000600052604160045260246000fd5b6040519080825280601f01601f191660200182016040528015612e415781602001600182028036833780820191505090505b5090505b60008514612ef457600182612e5a9190614cd9565b9150600a85612e699190614e81565b6030612e759190614bf8565b60f81b818381518110612eb1577f4e487b7100000000000000000000000000000000000000000000000000000000600052603260045260246000fd5b60200101907effffffffffffffffffffffffffffffffffffffffffffffffffffffffffffff1916908160001a905350600a85612eed9190614c4e565b9450612e45565b8093505050505b919050565b612f9c84848484604051602401612f1a9493929190614778565b6040516020818303038152906040527f9fd009f5000000000000000000000000000000000000000000000000000000007bffffffffffffffffffffffffffffffffffffffffffffffffffffffff19166020820180517bffffffffffffffffffffffffffffffffffffffffffffffffffffffff838183161783525050505061332a565b50505050565b60606000825190506000811415612fcb576040518060200160405280600081525091505061315b565b60006003600283612fdc9190614bf8565b612fe69190614c4e565b6004612ff29190614c7f565b905060006020826130039190614bf8565b67ffffffffffffffff811115613042577f4e487b7100000000000000000000000000000000000000000000000000000000600052604160045260246000fd5b6040519080825280601f01601f1916602001820160405280156130745781602001600182028036833780820191505090505b5090506000604051806060016040528060408152602001615694604091399050600181016020830160005b868110156131185760038101905062ffffff818a015116603f8160121c168401518060081b905060ff603f83600c1c1686015116810190508060081b905060ff603f8360061c1686015116810190508060081b905060ff603f831686015116810190508060e01b9050808452600484019350505061309f565b50600386066001811461313257600281146131425761314d565b613d3d60f01b600283035261314d565b603d60f81b60018303525b508484525050819450505050505b919050565b6131f6816040516024016131749190614694565b6040516020818303038152906040527f41304fac000000000000000000000000000000000000000000000000000000007bffffffffffffffffffffffffffffffffffffffffffffffffffffffff19166020820180517bffffffffffffffffffffffffffffffffffffffffffffffffffffffff838183161783525050505061332a565b50565b6132138282604051806020016040528060008152506134f4565b5050565b61322082612471565b61325f576040517f08c379a000000000000000000000000000000000000000000000000000000000815260040161325690614957565b60405180910390fd5b80600a6000848152602001908152602001600020908051906020019061328692919061374c565b505050565b6133258383836040516024016132a3939291906147d2565b6040516020818303038152906040527fa3f5c739000000000000000000000000000000000000000000000000000000007bffffffffffffffffffffffffffffffffffffffffffffffffffffffff19166020820180517bffffffffffffffffffffffffffffffffffffffffffffffffffffffff838183161783525050505061332a565b505050565b60008151905060006a636f6e736f6c652e6c6f679050602083016000808483855afa5050505050565b505050565b505050565b600061337e8473ffffffffffffffffffffffffffffffffffffffff1661354f565b156134e7578373ffffffffffffffffffffffffffffffffffffffff1663150b7a026133a76124dd565b8786866040518563ffffffff1660e01b81526004016133c994939291906145e7565b602060405180830381600087803b1580156133e357600080fd5b505af192505050801561341457506040513d601f19601f820116820180604052508101906134119190613bfe565b60015b613497573d8060008114613444576040519150601f19603f3d011682016040523d82523d6000602084013e613449565b606091505b5060008151141561348f576040517f08c379a000000000000000000000000000000000000000000000000000000000815260040161348690614817565b60405180910390fd5b805181602001fd5b63150b7a0260e01b7bffffffffffffffffffffffffffffffffffffffffffffffffffffffff1916817bffffffffffffffffffffffffffffffffffffffffffffffffffffffff1916149150506134ec565b600190505b949350505050565b6134fe8383613572565b61350b600084848461335d565b61354a576040517f08c379a000000000000000000000000000000000000000000000000000000000815260040161354190614817565b60405180910390fd5b505050565b6000808273ffffffffffffffffffffffffffffffffffffffff163b119050919050565b600073ffffffffffffffffffffffffffffffffffffffff168273ffffffffffffffffffffffffffffffffffffffff1614156135e2576040517f08c379a00000000000000000000000000000000000000000000000000000000081526004016135d990614977565b60405180910390fd5b6135eb81612471565b1561362b576040517f08c379a000000000000000000000000000000000000000000000000000000000815260040161362290614857565b60405180910390fd5b61363760008383613353565b6001600760008473ffffffffffffffffffffffffffffffffffffffff1673ffffffffffffffffffffffffffffffffffffffff16815260200190815260200160002060008282546136879190614bf8565b92505081905550816006600083815260200190815260200160002060006101000a81548173ffffffffffffffffffffffffffffffffffffffff021916908373ffffffffffffffffffffffffffffffffffffffff160217905550808273ffffffffffffffffffffffffffffffffffffffff16600073ffffffffffffffffffffffffffffffffffffffff167fddf252ad1be2c89b69c2b068fc378daa952ba7f163c4a11628f55a4df523b3ef60405160405180910390a461374860008383613358565b5050565b82805461375890614dd5565b90600052602060002090601f01602090048101928261377a57600085556137c1565b82601f1061379357805160ff19168380011785556137c1565b828001600101855582156137c1579182015b828111156137c05782518255916020019190600101906137a5565b5b5090506137ce919061388e565b5090565b6040518060c001604052806060815260200160608152602001606081526020016060815260200160608152602001606081525090565b82805461381490614dd5565b90600052602060002090601f016020900481019282613836576000855561387d565b82601f1061384f57803560ff191683800117855561387d565b8280016001018555821561387d579182015b8281111561387c578235825591602001919060010190613861565b5b50905061388a919061388e565b5090565b5b808211156138a757600081600090555060010161388f565b5090565b60006138be6138b984614ae9565b614ac4565b9050828152602081018484840111156138d657600080fd5b6138e1848285614d93565b509392505050565b60006138fc6138f784614b1a565b614ac4565b90508281526020810184848401111561391457600080fd5b61391f848285614d93565b509392505050565b60008135905061393681615594565b92915050565b60008135905061394b816155ab565b92915050565b600081359050613960816155c2565b92915050565b600081519050613975816155c2565b92915050565b600082601f83011261398c57600080fd5b813561399c8482602086016138ab565b91505092915050565b60008083601f8401126139b757600080fd5b8235905067ffffffffffffffff8111156139d057600080fd5b6020830191508360018202830111156139e857600080fd5b9250929050565b600082601f830112613a0057600080fd5b8135613a108482602086016138e9565b91505092915050565b600081359050613a28816155d9565b92915050565b600060208284031215613a4057600080fd5b6000613a4e84828501613927565b91505092915050565b60008060408385031215613a6a57600080fd5b6000613a7885828601613927565b9250506020613a8985828601613927565b9150509250929050565b600080600060608486031215613aa857600080fd5b6000613ab686828701613927565b9350506020613ac786828701613927565b9250506040613ad886828701613a19565b9150509250925092565b60008060008060808587031215613af857600080fd5b6000613b0687828801613927565b9450506020613b1787828801613927565b9350506040613b2887828801613a19565b925050606085013567ffffffffffffffff811115613b4557600080fd5b613b518782880161397b565b91505092959194509250565b60008060408385031215613b7057600080fd5b6000613b7e85828601613927565b9250506020613b8f8582860161393c565b9150509250929050565b60008060408385031215613bac57600080fd5b6000613bba85828601613927565b9250506020613bcb85828601613a19565b9150509250929050565b600060208284031215613be757600080fd5b6000613bf584828501613951565b91505092915050565b600060208284031215613c1057600080fd5b6000613c1e84828501613966565b91505092915050565b60008060208385031215613c3a57600080fd5b600083013567ffffffffffffffff811115613c5457600080fd5b613c60858286016139a5565b92509250509250929050565b600080600080600080600060c0888a031215613c8757600080fd5b600088013567ffffffffffffffff811115613ca157600080fd5b613cad8a828b016139a5565b9750975050602088013567ffffffffffffffff811115613ccc57600080fd5b613cd88a828b016139ef565b955050604088013567ffffffffffffffff811115613cf557600080fd5b613d018a828b016139ef565b945050606088013567ffffffffffffffff811115613d1e57600080fd5b613d2a8a828b016139ef565b935050608088013567ffffffffffffffff811115613d4757600080fd5b613d538a828b016139ef565b92505060a088013567ffffffffffffffff811115613d7057600080fd5b613d7c8a828b016139ef565b91505092959891949750929550565b600060208284031215613d9d57600080fd5b600082013567ffffffffffffffff811115613db757600080fd5b613dc3848285016139ef565b91505092915050565b600060208284031215613dde57600080fd5b6000613dec84828501613a19565b91505092915050565b6000613e018383613f36565b905092915050565b613e1281614d1f565b82525050565b613e2181614d0d565b82525050565b6000613e3282614b70565b613e3c8185614b9e565b935083602082028501613e4e85614b4b565b8060005b85811015613e8a5784840389528151613e6b8582613df5565b9450613e7683614b91565b925060208a01995050600181019050613e52565b50829750879550505050505092915050565b613ea581614d31565b82525050565b6000613eb682614b7b565b613ec08185614baf565b9350613ed0818560208601614da2565b613ed981614f6e565b840191505092915050565b6000613ef08385614bdc565b9350613efd838584614d93565b613f0683614f6e565b840190509392505050565b6000613f1d8385614bed565b9350613f2a838584614d93565b82840190509392505050565b6000613f4182614b86565b613f4b8185614bcb565b9350613f5b818560208601614da2565b613f6481614f6e565b840191505092915050565b6000613f7a82614b86565b613f848185614bdc565b9350613f94818560208601614da2565b613f9d81614f6e565b840191505092915050565b6000613fb382614b86565b613fbd8185614bed565b9350613fcd818560208601614da2565b80840191505092915050565b60008154613fe681614dd5565b613ff08186614bed565b9450600182166000811461400b576001811461401c5761404f565b60ff1983168652818601935061404f565b61402585614b5b565b60005b8381101561404757815481890152600182019150602081019050614028565b838801955050505b50505092915050565b6000614065603283614bdc565b915061407082614f7f565b604082019050919050565b6000614088602583614bdc565b915061409382614fce565b604082019050919050565b60006140ab601c83614bdc565b91506140b68261501d565b602082019050919050565b60006140ce602483614bdc565b91506140d982615046565b604082019050919050565b60006140f1601983614bdc565b91506140fc82615095565b602082019050919050565b6000614114601883614bdc565b915061411f826150be565b602082019050919050565b6000614137602c83614bdc565b9150614142826150e7565b604082019050919050565b600061415a603883614bdc565b915061416582615136565b604082019050919050565b600061417d600183614bed565b915061418882615185565b600182019050919050565b60006141a0602a83614bdc565b91506141ab826151ae565b604082019050919050565b60006141c3602983614bdc565b91506141ce826151fd565b604082019050919050565b60006141e6602e83614bdc565b91506141f18261524c565b604082019050919050565b6000614209600283614bed565b91506142148261529b565b600282019050919050565b600061422c602083614bdc565b9150614237826152c4565b602082019050919050565b600061424f603183614bdc565b915061425a826152ed565b604082019050919050565b6000614272602c83614bdc565b915061427d8261533c565b604082019050919050565b6000614295602f83614bdc565b91506142a08261538b565b604082019050919050565b60006142b8601583614bdc565b91506142c3826153da565b602082019050919050565b60006142db600a83614bed565b91506142e682615403565b600a82019050919050565b60006142fe602183614bdc565b91506143098261542c565b604082019050919050565b6000614321601d83614bed565b915061432c8261547b565b601d82019050919050565b6000614344600c83614bed565b915061434f826154a4565b600c82019050919050565b6000614367600083614bc0565b9150614372826154cd565b600082019050919050565b600061438a603183614bdc565b9150614395826154d0565b604082019050919050565b60006143ad605a83614bed565b91506143b88261551f565b605a82019050919050565b600060c08301600083015184820360008601526143e08282613f36565b915050602083015184820360208601526143fa8282613f36565b915050604083015184820360408601526144148282613f36565b9150506060830151848203606086015261442e8282613f36565b915050608083015184820360808601526144488282613f36565b91505060a083015184820360a08601526144628282613f36565b9150508091505092915050565b61447881614d89565b82525050565b600061448b828486613f11565b91508190509392505050565b60006144a4828587613f11565b91506144af82614170565b91506144bb8284613fd9565b9150819050949350505050565b60006144d48285613fa8565b91506144e08284613fa8565b91508190509392505050565b60006144f88286613fd9565b91506145048285613fa8565b91506145108284613fd9565b9150819050949350505050565b6000614528826142ce565b91506145348286613fa8565b915061453f826143a0565b915061454b8285613fa8565b915061455682614337565b91506145628284613fa8565b915061456d826141fc565b9150819050949350505050565b600061458582614314565b91506145918284613fa8565b915081905092915050565b60006145a78261435a565b9150819050919050565b60006020820190506145c66000830184613e18565b92915050565b60006020820190506145e16000830184613e09565b92915050565b60006080820190506145fc6000830187613e18565b6146096020830186613e18565b614616604083018561446f565b81810360608301526146288184613eab565b905095945050505050565b6000602082019050818103600083015261464d8184613e27565b905092915050565b600060208201905061466a6000830184613e9c565b92915050565b6000602082019050818103600083015261468b818486613ee4565b90509392505050565b600060208201905081810360008301526146ae8184613f6f565b905092915050565b600060408201905081810360008301526146d08185613f6f565b905081810360208301526146e48184613f6f565b90509392505050565b600060c08201905081810360008301526147078189613f6f565b9050818103602083015261471b8188613f6f565b9050818103604083015261472f8187613f6f565b905081810360608301526147438186613f6f565b905081810360808301526147578185613f6f565b905081810360a083015261476b8184613f6f565b9050979650505050505050565b600060808201905081810360008301526147928187613f6f565b905081810360208301526147a68186613f6f565b905081810360408301526147ba8185613f6f565b90506147c9606083018461446f565b95945050505050565b600060608201905081810360008301526147ec8186613f6f565b90506147fb602083018561446f565b818103604083015261480d8184613f6f565b9050949350505050565b6000602082019050818103600083015261483081614058565b9050919050565b600060208201905081810360008301526148508161407b565b9050919050565b600060208201905081810360008301526148708161409e565b9050919050565b60006020820190508181036000830152614890816140c1565b9050919050565b600060208201905081810360008301526148b0816140e4565b9050919050565b600060208201905081810360008301526148d081614107565b9050919050565b600060208201905081810360008301526148f08161412a565b9050919050565b600060208201905081810360008301526149108161414d565b9050919050565b6000602082019050818103600083015261493081614193565b9050919050565b60006020820190508181036000830152614950816141b6565b9050919050565b60006020820190508181036000830152614970816141d9565b9050919050565b600060208201905081810360008301526149908161421f565b9050919050565b600060208201905081810360008301526149b081614242565b9050919050565b600060208201905081810360008301526149d081614265565b9050919050565b600060208201905081810360008301526149f081614288565b9050919050565b60006020820190508181036000830152614a10816142ab565b9050919050565b60006020820190508181036000830152614a30816142f1565b9050919050565b60006020820190508181036000830152614a508161437d565b9050919050565b60006020820190508181036000830152614a7181846143c3565b905092915050565b6000602082019050614a8e600083018461446f565b92915050565b6000604082019050614aa9600083018561446f565b8181036020830152614abb8184613f6f565b90509392505050565b6000614ace614adf565b9050614ada8282614e07565b919050565b6000604051905090565b600067ffffffffffffffff821115614b0457614b03614f3f565b5b614b0d82614f6e565b9050602081019050919050565b600067ffffffffffffffff821115614b3557614b34614f3f565b5b614b3e82614f6e565b9050602081019050919050565b6000819050602082019050919050565b60008190508160005260206000209050919050565b600081519050919050565b600081519050919050565b600081519050919050565b6000602082019050919050565b600082825260208201905092915050565b600082825260208201905092915050565b600081905092915050565b600082825260208201905092915050565b600082825260208201905092915050565b600081905092915050565b6000614c0382614d89565b9150614c0e83614d89565b9250827fffffffffffffffffffffffffffffffffffffffffffffffffffffffffffffffff03821115614c4357614c42614eb2565b5b828201905092915050565b6000614c5982614d89565b9150614c6483614d89565b925082614c7457614c73614ee1565b5b828204905092915050565b6000614c8a82614d89565b9150614c9583614d89565b9250817fffffffffffffffffffffffffffffffffffffffffffffffffffffffffffffffff0483118215151615614cce57614ccd614eb2565b5b828202905092915050565b6000614ce482614d89565b9150614cef83614d89565b925082821015614d0257614d01614eb2565b5b828203905092915050565b6000614d1882614d69565b9050919050565b6000614d2a82614d69565b9050919050565b60008115159050919050565b60007fffffffff0000000000000000000000000000000000000000000000000000000082169050919050565b600073ffffffffffffffffffffffffffffffffffffffff82169050919050565b6000819050919050565b82818337600083830152505050565b60005b83811015614dc0578082015181840152602081019050614da5565b83811115614dcf576000848401525b50505050565b60006002820490506001821680614ded57607f821691505b60208210811415614e0157614e00614f10565b5b50919050565b614e1082614f6e565b810181811067ffffffffffffffff82111715614e2f57614e2e614f3f565b5b80604052505050565b6000614e4382614d89565b91507fffffffffffffffffffffffffffffffffffffffffffffffffffffffffffffffff821415614e7657614e75614eb2565b5b600182019050919050565b6000614e8c82614d89565b9150614e9783614d89565b925082614ea757614ea6614ee1565b5b828206905092915050565b7f4e487b7100000000000000000000000000000000000000000000000000000000600052601160045260246000fd5b7f4e487b7100000000000000000000000000000000000000000000000000000000600052601260045260246000fd5b7f4e487b7100000000000000000000000000000000000000000000000000000000600052602260045260246000fd5b7f4e487b7100000000000000000000000000000000000000000000000000000000600052604160045260246000fd5b6000601f19601f8301169050919050565b7f4552433732313a207472616e7366657220746f206e6f6e20455243373231526560008201527f63656976657220696d706c656d656e7465720000000000000000000000000000602082015250565b7f4552433732313a207472616e736665722066726f6d20696e636f72726563742060008201527f6f776e6572000000000000000000000000000000000000000000000000000000602082015250565b7f4552433732313a20746f6b656e20616c7265616479206d696e74656400000000600082015250565b7f4552433732313a207472616e7366657220746f20746865207a65726f2061646460008201527f7265737300000000000000000000000000000000000000000000000000000000602082015250565b7f4552433732313a20617070726f766520746f2063616c6c657200000000000000600082015250565b7f4661696c656420746f207769746864726177204d617469630000000000000000600082015250565b7f4552433732313a206f70657261746f7220717565727920666f72206e6f6e657860008201527f697374656e7420746f6b656e0000000000000000000000000000000000000000602082015250565b7f4552433732313a20617070726f76652063616c6c6572206973206e6f74206f7760008201527f6e6572206e6f7220617070726f76656420666f7220616c6c0000000000000000602082015250565b7f2e00000000000000000000000000000000000000000000000000000000000000600082015250565b7f4552433732313a2062616c616e636520717565727920666f7220746865207a6560008201527f726f206164647265737300000000000000000000000000000000000000000000602082015250565b7f4552433732313a206f776e657220717565727920666f72206e6f6e657869737460008201527f656e7420746f6b656e0000000000000000000000000000000000000000000000602082015250565b7f45524337323155524953746f726167653a2055524920736574206f66206e6f6e60008201527f6578697374656e7420746f6b656e000000000000000000000000000000000000602082015250565b7f227d000000000000000000000000000000000000000000000000000000000000600082015250565b7f4552433732313a206d696e7420746f20746865207a65726f2061646472657373600082015250565b7f45524337323155524953746f726167653a2055524920717565727920666f722060008201527f6e6f6e6578697374656e7420746f6b656e000000000000000000000000000000602082015250565b7f4552433732313a20617070726f76656420717565727920666f72206e6f6e657860008201527f697374656e7420746f6b656e0000000000000000000000000000000000000000602082015250565b7f4552433732314d657461646174613a2055524920717565727920666f72206e6f60008201527f6e6578697374656e7420746f6b656e0000000000000000000000000000000000602082015250565b7f4e6f7420656e6f756768204d6174696320706169640000000000000000000000600082015250565b7f7b226e616d65223a202200000000000000000000000000000000000000000000600082015250565b7f4552433732313a20617070726f76616c20746f2063757272656e74206f776e6560008201527f7200000000000000000000000000000000000000000000000000000000000000602082015250565b7f646174613a6170706c69636174696f6e2f6a736f6e3b6261736536342c000000600082015250565b7f222c226c656e677468223a220000000000000000000000000000000000000000600082015250565b50565b7f4552433732313a207472616e736665722063616c6c6572206973206e6f74206f60008201527f776e6572206e6f7220617070726f766564000000000000000000000000000000602082015250565b7f222c20226465736372697074696f6e223a20224120646f6d61696e206f6e207460008201527f686520444556206e616d652073657276696365222c2022696d616765223a202260208201527f646174613a696d6167652f7376672b786d6c3b6261736536342c000000000000604082015250565b61559d81614d0d565b81146155a857600080fd5b50565b6155b481614d31565b81146155bf57600080fd5b50565b6155cb81614d3d565b81146155d657600080fd5b50565b6155e281614d89565b81146155ed57600080fd5b5056fe0a2d2d2d2d2d2d2d2d2d2d2d2d2d2d2d2d2d2d2d2d2d2d2d2d2d2d2d2d2d2d2d2d2d2d2d2d2d2d2d2d2d2d2d2d2d2d2d2d2d2d2d2d2d2d2d2d5265676973746572696e672025732e2573206f6e2074686520636f6e7472616374207769746820746f6b656e49442025642d2d2d2d2d2d2d2d2d2d2d2d2d2d2d2d2d2d2d2d2d2d2d2d2d2d2d2d2d2d2d2d2d2d2d2d2d2d2d2d2d2d2d2d2d2d2d2d2d2d2d2d2d2d2d2d0a4142434445464748494a4b4c4d4e4f505152535455565758595a6162636465666768696a6b6c6d6e6f707172737475767778797a303132333435363738392b2fa264697066735822122060255ec87530ca1528bdebdb4d3bee256c809a0e175e2cd3e10fc987612f753064736f6c634300080400333c73766720786d6c6e733d22687474703a2f2f7777772e77332e6f72672f323030302f737667222077696474683d2232373022206865696768743d22323730222066696c6c3d226e6f6e65223e3c706174682066696c6c3d2275726c282342292220643d224d302030683237307632373048307a222f3e3c646566733e3c66696c7465722069643d22412220636f6c6f722d696e746572706f6c6174696f6e2d66696c746572733d2273524742222066696c746572556e6974733d227573657253706163654f6e55736522206865696768743d22323730222077696474683d22323730223e3c666544726f70536861646f772064783d2230222064793d22312220737464446576696174696f6e3d22322220666c6f6f642d6f7061636974793d222e323235222077696474683d223230302522206865696768743d2232303025222f3e3c2f66696c7465723e3c2f646566733e3c7061746820643d224d37322e3836332034322e393439632d2e3636382d2e3338372d312e3432362d2e35392d322e3139372d2e3539732d312e3532392e3230342d322e3139372e35396c2d31302e30383120362e3033322d362e383520332e3933342d31302e30383120362e303332632d2e3636382e3338372d312e3432362e35392d322e3139372e3539732d312e3532392d2e3230342d322e3139372d2e35396c2d382e3031332d342e37323161342e353220342e35322030203020312d312e3538392d312e363136632d2e3338342d2e3636352d2e3539342d312e3431382d2e3630382d322e313837762d392e3331632d2e3031332d2e3737352e3138352d312e3533382e3537322d322e32303861342e323520342e323520302030203120312e3632352d312e3539356c372e3838342d342e3539632e3636382d2e33383720312e3432362d2e353920322e3139372d2e353973312e3532392e32303420322e3139372e35396c372e38383420342e353961342e353220342e353220302030203120312e35383920312e363136632e3338342e3636352e35393420312e3431382e36303820322e31383776362e3033326c362e38352d342e303635762d362e303332632e3031332d2e3737352d2e3138352d312e3533382d2e3537322d322e32303861342e323520342e32352030203020302d312e3632352d312e3539354c34312e3435362032342e3539632d2e3636382d2e3338372d312e3432362d2e35392d322e3139372d2e3539732d312e3532392e3230342d322e3139372e35396c2d31342e38363420382e36353561342e323520342e32352030203020302d312e36323520312e353935632d2e3338372e36372d2e35383520312e3433342d2e35373220322e3230387631372e343431632d2e3031332e3737352e31383520312e3533382e35373220322e32303861342e323520342e323520302030203020312e36323520312e3539356c31342e38363420382e363535632e3636382e33383720312e3432362e353920322e3139372e353973312e3532392d2e32303420322e3139372d2e35396c31302e3038312d352e39303120362e38352d342e3036352031302e3038312d352e393031632e3636382d2e33383720312e3432362d2e353920322e3139372d2e353973312e3532392e32303420322e3139372e35396c372e38383420342e353961342e353220342e353220302030203120312e35383920312e363136632e3338342e3636352e35393420312e3431382e36303820322e31383776392e333131632e3031332e3737352d2e31383520312e3533382d2e35373220322e32303861342e323520342e32352030203020312d312e36323520312e3539356c2d372e38383420342e373231632d2e3636382e3338372d312e3432362e35392d322e3139372e3539732d312e3532392d2e3230342d322e3139372d2e35396c2d372e3838342d342e353961342e353220342e35322030203020312d312e3538392d312e363136632d2e3338352d2e3636352d2e3539342d312e3431382d2e3630382d322e313837762d362e3033326c2d362e383520342e30363576362e303332632d2e3031332e3737352e31383520312e3533382e35373220322e32303861342e323520342e323520302030203020312e36323520312e3539356c31342e38363420382e363535632e3636382e33383720312e3432362e353920322e3139372e353973312e3532392d2e32303420322e3139372d2e35396c31342e3836342d382e363535632e3635372d2e33393420312e3230342d2e393520312e3538392d312e363136732e3539342d312e3431382e3630392d322e3138375635352e353338632e3031332d2e3737352d2e3138352d312e3533382d2e3537322d322e32303861342e323520342e32352030203020302d312e3632352d312e3539356c2d31342e3939332d382e3738367a222066696c6c3d2223666666222f3e3c646566733e3c6c696e6561724772616469656e742069643d2242222078313d2230222079313d2230222078323d22323730222079323d2232373022206772616469656e74556e6974733d227573657253706163654f6e557365223e3c73746f702073746f702d636f6c6f723d2223303730306238222f3e3c73746f70206f66667365743d2231222073746f702d636f6c6f723d2223303066663838222073746f702d6f7061636974793d222e3939222f3e3c2f6c696e6561724772616469656e743e3c2f646566733e3c7465787420783d2233322e352220793d223233312220666f6e742d73697a653d223237222066696c6c3d2223666666222066696c7465723d2275726c282341292220666f6e742d66616d696c793d22506c7573204a616b617274612053616e732c44656a6156752053616e732c4e6f746f20436f6c6f7220456d6f6a692c4170706c6520436f6c6f7220456d6f6a692c73616e732d73657269662220666f6e742d7765696768743d22626f6c64223e",
  "linkReferences": {},
  "deployedLinkReferences": {}
}